:100000000C9446000C9465000C9465000C946500FB
:100010000C9465000C9465000C9465000C946500CC
:100020000C9465000C9465000C9465000C946500BC
:100030000C9465000C9465000C9465000C9486117A
:100040000C9465000C9465000C94BB0E0C94650038
:100050000C9465000C9465000C9465000C9465008C
:100060000C9465000C9465000C9465000C9465007C
:100070000C9465000C9465000C94EE0D0C946500D6
:100080000C9465000C9465000C94650011241FBE4F
:10009000CFEFD0E1DEBFCDBF13E0A0E0B1E0EEE5F1
:1000A000F8E300E00BBF02C007900D92A238B10741
:1000B000D9F715E0A2E8B3E001C01D92A53CB10755
:1000C000E1F70E94E0030C942D1C0C9400001092A8
:1000D00098031092990312B80895EF92FF920F932C
:1000E0001F93CF93DF9381B182958F70509101015F
:1000F000A091000100E010E0C82FD0E081E0E82EE0
:10010000F12C402F2A2F30E0002E02C03595279584
:100110000A94E2F721703070B22F222399F0852FD4
:1001200090E0002E02C0959587950A94E2F780FF33
:1001300009C0CE01002E02C0959587950A94E2F77A
:1001400080FF4AC021153105C9F5852F90E0042EA6
:1001500002C0959587950A94E2F7FC01E170F07072
:1001600080FF19C0CE01042E02C0959587950A9490
:10017000E2F7BC016170707080FD09C0C70102C068
:10018000880F991F4A95E2F7809558234AC0EE23BD
:1001900011F0662359F4EF2B89F4CE01042E02C02E
:1001A000959587950A94E2F780FF08C0C70102C0C1
:1001B000880F991F4A95E2F7A82B33C0BB23A9F0FB
:1001C000852F90E08C2B9D2B042E02C09595879552
:1001D0000A94E2F780FD09C0C70102C0880F991F89
:1001E0004A95E2F78095A8231CC0232BD1F0852FD8
:1001F00090E0042E02C0959587950A94E2F780FD61
:1002000010C0CE01042E02C0959587950A94E2F79E
:1002100080FF07C0C70102C0880F991F4A95E2F707
:10022000582B0F5F1F4F0830110509F06ACF50930C
:100230000101A093000180919803952F9095982338
:1002400080958523982B90939903DF91CF911F91EF
:100250000F91FF90EF9008950E946D00089520E0A7
:1002600030E0682F70E042E6CB01022E02C0959587
:1002700087950A94E2F780FF02C0C19A01C0C19835
:10028000842F8A95F1F7C29A842F8A95F1F7C29844
:10029000C198842F8A95F1F72F5F3F4F28303105A1
:1002A00019F7089580919A030E942F01C49A82E65B
:1002B0008A95F1F7C498089590919A0380919B03D1
:1002C000891721F090939B030E9452010895B99AD7
:1002D000BA9ABC9AC198C298C49810929A038FEFA8
:1002E00080939B0308951092BC038FEF8093C50306
:1002F0008093C0031092BD038093C6038093C10313
:100300001092BE038093C7038093C2031092BF0371
:100310008093C8038093C303ECE9F3E01192119238
:1003200083E0EC3BF807D1F710926100A49AA59AFC
:10033000A69AA79A0895882311F4AC9805C0AC9AA0
:10034000813011F4AD9805C0AD9A823011F4AE98A9
:1003500005C0AE9A833011F4AF980895AF9A08950E
:100360001092BC031092BD031092BE031092BF0303
:10037000089540B190E083709070049621E030E0E1
:1003800002C0220F331F8A95E2F7842F822308953B
:10039000CF92DF92EF92FF920F931F93DF93CF9351
:1003A000CDB7DEB72A970FB6F894DEBF0FBECDBF2C
:1003B000E82F7E010894E11CF11C87019E01255F56
:1003C0003F4F80B1D8018D938D01A217B307C9F7B4
:1003D000F0E0DF01AB53BC4F8C91E054FC4F8083C5
:1003E00064E070E081E0C82ED12C1CC0808190E0D8
:1003F00082239323892B09F04F5F3196E017F10791
:10040000A9F7483018F08C91822B06C0433028F4AD
:100410009C91822F809589238C936F5F7F4F6830EA
:10042000710551F09601062E02C0220F331F0A9467
:10043000E2F7F70140E0DACF2A960FB6F894DEBF74
:100440000FBECDBFCF91DF911F910F91FF90EF9025
:10045000DF90CF900895CF93DF93982F9695969540
:10046000692F70E0FB01EB53FC4F2081A82FB0E017
:10047000AD01437050704C5F5F4F30E0042E02C0FE
:10048000359527950A94E2F720FF21C0FB01E0543F
:10049000FC4F808190E0042E02C0959587950A94C8
:1004A000E2F780FD14C0FB01E454FC4F208181E0A1
:1004B00090E002C0880F991F4A95E2F7282B20830D
:1004C000AA0FBB1FA456BC4F1D921C925CC0FB011F
:1004D000EB53FC4F808190E0042E02C095958795E8
:1004E0000A94E2F780FD0DC0FB01E054FC4F8081CF
:1004F00090E0042E02C0959587950A94E2F780FD5E
:1005000042C0FB01EB53FC4F808190E0042E02C0FF
:10051000959587950A94E2F780FD35C0FB01E0547C
:10052000FC4F808190E0042E02C0959587950A9437
:10053000E2F780FD28C0AA0FBB1FA456BC4F2D9127
:100540003C9111972F5F3F4F11963C932E93C09192
:100550000201D091030180910401909105018C0F5B
:100560009D1F8217930778F4FB01E454FC4F208110
:1005700081E090E002C0880F991F4A95E2F7282B8E
:100580002083CD93DC93DF91CF9108950F931F9338
:1005900010E008E1812F0E949B01802F8A95F1F7DE
:1005A000812F0E94C8011F5F1430A1F710E0812F36
:1005B0000E942B021F5F1031D1F71F910F910895F8
:1005C0008091C40381508093C4038F5F29F48AE033
:1005D0008093C4030E94C602089580910601909101
:1005E000070101979093070180930601892B09F079
:1005F00049C08AE090E090930701809306018091C2
:1006000082039091830301969093830380938203E6
:10061000039724F010928303109282038091820347
:10062000909183038130910591F082309105E1F042
:10063000892B41F581E090E06FE370E00E94CC15DA
:1006400097FD20C09093CE038093CD03089581E061
:1006500090E06FE370E00E943A1697FD13C090930C
:100660000C0480930B0408958FE390E00E94F31430
:1006700097FD08C0609312047093130480931404D0
:10068000909315040895CF93DF93EC0198818091A6
:100690000A04981709F079C08981863059F56C8170
:1006A0007D818A819B818130910561F08130910546
:1006B00020F0029709F054C015C081E090E00E943C
:1006C000CC154EC0161617061CF061E070E005C090
:1006D0006530710514F064E070E081E090E00E9404
:1006E0003A163EC06E5F7F4ED9F580E090E00E94E2
:1006F000F31436C08330A1F59883898381E08C8F11
:1007000086E090E09B838A838091CD039091CE0315
:100710009D838C8380910B0490910C049F838E8326
:10072000198618868091120490911304A0911404E4
:10073000B09115040097A105B10521F081E090E08A
:10074000998788871B861A868091C3059091C40576
:100750009D878C878091C1059091C2059F878E8768
:1007600080E090E90197F1F7CE016FEC73E04BE385
:1007700050E00E949C138FEC93E060E070E040E05A
:1007800050E02CE231E00E94F70FDF91CF91089505
:1007900080918403882381F085EC94E066E174E025
:1007A0000E94271480930D0410928403882321F45F
:1007B00086E194E00E94430308950E94E0020895B8
:1007C0000E9406110E9473010E9467010E94670047
:1007D0000E9406120E944F040E9497100E94030577
:1007E00040910E0450910F04609110047091110417
:1007F00082E80E94DA0A4091C9035091CA036091CD
:10080000CB037091CC0380E80E941F0C0E94180C4F
:10081000789488EE93E00E94991088E893E120E7AD
:1008200031E0F9013197F1F70197D9F788EC90E0C1
:100830000E94991080ED97E020E731E0F9013197AF
:10084000F1F70197D9F788EC90E00E94991080EDBC
:1008500097E020E731E0F9013197F1F70197D9F7F7
:100860000E940A0A0E94960A0E94A8120E94C803C7
:100870000E94ED02F7CF9C01E199FECF3FBB2EBB5A
:10088000E09A8DB308959C01E199FECF3FBB2EBB4A
:100890006DBB0FB6F894E29AE19A0FBE089586EA0E
:1008A00099E0909346058093450583E699E09093FF
:1008B0006405809363058DE299E0909366058093CB
:1008C000650587ED98E090936805809367058BE256
:1008D00098E090936A05809369058AEE97E090937B
:1008E0006C0580936B058CE997E09093820580936B
:1008F000810584E197E090938405809383058CE8DB
:1009000096E0909386058093850580E596E0909328
:1009100088058093870583E196E090938A0580930C
:1009200089058BEB95E090938C0580938B0582E98C
:1009300095E09093A00580939F05089581E08093B2
:100940000A0480E092ECA1E0B0E080930E04909362
:100950000F04A0931004B093110480E895E2A0E086
:10096000B0E08093C9039093CA03A093CB03B093E4
:10097000CC03089580910A04E199FECF1FBA1EBAF4
:100980008DBB0FB6F894E29AE19A0FBE60910E0407
:1009900070910F0481E090E043E454E00E948F17CF
:1009A00020910E0430910F044091100450911104D5
:1009B0009A01552737FD5095452F83E090E0B90106
:1009C00043E454E00E948F176091C9037091CA03F9
:1009D00085E090E043E454E00E948F172091C90322
:1009E0003091CA034091CB035091CC039A01552713
:1009F00037FD5095452F87E090E0B90143E454E07E
:100A00000E948F170895EF92FF920F931F93E19921
:100A1000FECF1FBA1EBAE09A8DB380930A0481E01C
:100A200090E06BE374E00E9479177C0100E010E035
:100A3000E0920E04F0920F0400931004109311043E
:100A400083E090E06BE374E00E947917A0E0B0E0EF
:100A5000DC01992788278E299F29A02BB12B809311
:100A60000E0490930F04A0931004B093110485E03A
:100A700090E06BE374E00E9479177C0100E010E0E5
:100A8000E092C903F092CA030093CB031093CC0306
:100A900087E090E06BE374E00E947917A0E0B0E09B
:100AA000DC01992788278E299F29A02BB12B8093C1
:100AB000C9039093CA03A093CB03B093CC031F91B7
:100AC0000F91FF90EF9008958091BC0386FF0BC0BB
:100AD0000E946C128091BC038F7B8093BC0382E3E5
:100AE00090E00E9499108091BD0386FF0BC00E9488
:100AF00044128091BD038F7B8093BD0382E390E01D
:100B00000E9499108091BC0385FF0BC00E942712A0
:100B10008091BC038F7D8093BC0382E390E00E94B0
:100B2000991008958DE594E068E071E00E947217D5
:100B300000D000D000D0EDB7FEB7319685E394E049
:100B4000ADB7BEB712969C938E93119789E191E051
:100B5000938382838FE191E0958384830E94A4171D
:100B60008DB79EB706960FB6F8949EBF0FBE8DBF89
:100B70000E94640508958091BC0387FF45C081E011
:100B800080930A0480E092ECA1E0B0E080930E0430
:100B900090930F04A0931004B093110480E895E2A1
:100BA000A0E0B0E08093C9039093CA03A093CB0365
:100BB000B093CC030E94BA048DE594E068E271E042
:100BC0000E94721785E394E069E371E00E94721756
:100BD00080E06DE574E00E94640A81E065E374E002
:100BE0000E94640A84EF91E00E94991088E893E1E2
:100BF00020E731E0F9013197F1F70197D9F78091BA
:100C0000BC038F778093BC038DE594E06AE471E0C8
:100C10000E94721785E394E068E271E00E94721707
:100C20000E94640508958091BC0387FF2AC00E943A
:100C3000BA048DE594E06BE571E00E94721785E3DC
:100C400094E06CE671E00E94721780E06DE574E05C
:100C50000E94640A81E065E374E00E94640A84EF04
:100C600091E00E94991088E893E120E731E0F901D2
:100C70003197F1F70197D9F78091BC038F77809373
:100C8000BC038DE594E06DE771E00E94721785E387
:100C900094E06BE571E00E9472170E94640508956C
:100CA00000D000D000D0EDB7FEB731968DE594E0CE
:100CB000ADB7BEB712969C938E9311978EE891E0D4
:100CC000938382838091C3059091C4059583848327
:100CD0000E94A417EDB7FEB7319685E394E0ADB757
:100CE000BEB712969C938E93119780EA91E09383FE
:100CF00082838091C1059091C205958384830E946F
:100D0000A4178DB79EB706960FB6F8949EBF0FBE78
:100D10008DBF0E94640508951F932091C9033091EF
:100D2000CA034091CB035091CC03E1E2F3E010E021
:100D300080819181A281B381281739074A075B0717
:100D400021F01F5F3496173099F78DE594E062EB40
:100D500071E00E9472172DB73EB7285030400FB691
:100D6000F8943EBF0FBE2DBFEDB7FEB7319685E3B9
:100D700094E0ADB7BEB712969C938E93119783EC17
:100D800091E0938382838091C9039091CA03A091DB
:100D9000CB03B091CC0384839583A683B7830E9451
:100DA000A4178091BD032DB73EB7285F3F4F0FB604
:100DB000F8943EBF0FBE2DBF87FF0DC01F5F1730D9
:100DC00009F410E08091BD038F778093BD0382E327
:100DD00090E00E9499108091BD0385FF0DC0112302
:100DE00009F417E011508091BD038F7D8093BD03FE
:100DF00082E390E00E949910E12FF0E0EE0FFF1FD8
:100E0000EE0FFF1FEF5DFC4F80819181A281B381C6
:100E10008093C9039093CA03A093CB03B093CC03F0
:100E20000E9464051F9108951F9320910E04309134
:100E30000F044091100450911104E1E2F3E010E03E
:100E400080819181A281B381281739074A075B0706
:100E500021F01F5F3496173099F78DE594E062EB2F
:100E600071E00E9472172DB73EB7285030400FB680
:100E7000F8943EBF0FBE2DBFEDB7FEB7319685E3A8
:100E800094E0ADB7BEB712969C938E93119783ED05
:100E900091E09383828380910E0490910F04A0913E
:100EA0001004B091110484839583A683B7830E94B4
:100EB000A4178091BD032DB73EB7285F3F4F0FB6F3
:100EC000F8943EBF0FBE2DBF87FF0DC01F5F1730C8
:100ED00009F410E08091BD038F778093BD0382E316
:100EE00090E00E9499108091BD0385FF0DC01123F1
:100EF00009F417E011508091BD038F7D8093BD03ED
:100F000082E390E00E949910E12FF0E0EE0FFF1FC6
:100F1000EE0FFF1FEF5DFC4F80819181A281B381B5
:100F200080930E0490930F04A0931004B0931104C7
:100F30000E9464051F9108958DE594E067EE71E0CD
:100F40000E94721700D000D000D0EDB7FEB73196E6
:100F500085E394E0ADB7BEB712969C938E9311973C
:100F600088EF91E09383828380910A0484831582C1
:100F70000E94A4178091BD032DB73EB72A5F3F4F53
:100F80000FB6F8943EBF0FBE2DBF87FF0EC08091F5
:100F90000A048F5F80930A048091BD038F7780934A
:100FA000BD0382E390E00E9499108091BD0385FF0C
:100FB0000EC080910A04815080930A048091BD0381
:100FC0008F7D8093BD0382E390E00E9499100E9480
:100FD000640508958091BC0387FF2EC080E090E0F7
:100FE0000E94F31497FD05C085E394E06EEF71E075
:100FF00004C085E394E06FE072E00E94721781E024
:1010000065E374E00E94640A84EF91E00E94991005
:1010100088E893E120E731E0F9013197F1F7019792
:10102000D9F785E394E060E272E00E947217809144
:10103000BC038F778093BC038DE594E065E372E099
:101040000E94721785E394E066E472E00E947217D2
:101050000E946405089580919703882351F01092AF
:10106000970380910B0490910C0490933E0380931E
:101070003D038091BC0387FF32C060913D037091B6
:101080003E0381E090E00E943A1697FD05C085E39B
:1010900094E06EEF71E004C085E394E06FE072E0ED
:1010A0000E94721781E065E374E00E94640A84EF95
:1010B00091E00E94991088E893E120E731E0F9017E
:1010C0003197F1F70197D9F785E394E067E572E08E
:1010D0000E9472178091BC038F778093BC0380912C
:1010E000BD0387FF1AC080913D0390913E03019696
:1010F00090933E0380933D03059734F081E090E0A8
:1011000090933E0380933D038091BD038F7780933E
:10111000BD0382E390E00E9499108091BD0385FF9A
:101120001BC080913D0390913E03019790933E0335
:1011300080933D031816190634F084E090E09093F4
:101140003E0380933D038091BD038F7D8093BD035B
:1011500082E390E00E9499108DE594E069E672E0E8
:101160000E94721700D000D000D0EDB7FEB73196C4
:1011700085E394E0ADB7BEB712969C938E9311971A
:101180008BE792E09383828380913D0390913E03AD
:10119000958384830E94A4178DB79EB706960FB6D9
:1011A000F8949EBF0FBE8DBF0E9464050895809184
:1011B000BC0387FF38C060E070E08091CD03909160
:1011C000CE03892B11F461E070E081E090E00E9491
:1011D000CC1597FD05C085E394E06EEF71E004C087
:1011E00085E394E06FE072E00E94721781E065E3AE
:1011F00074E00E94640A84EF91E00E94991088E8EC
:1012000093E120E731E0F9013197F1F70197D9F740
:1012100085E394E067E572E00E9472178091BC0359
:101220008F778093BC038091CD039091CE03892B5F
:1012300029F08DE594E06EE872E004C08DE594E05D
:1012400060EA72E00E94721785E394E066E472E05F
:101250000E9472170E94640508958DE594E062EB88
:1012600072E00E9472178DB79EB708970FB6F89478
:101270009EBF0FBE8DBFEDB7FEB7319685E394E0FC
:10128000ADB7BEB712969C938E93119783EC92E004
:10129000938382838091120490911304A09114048B
:1012A000B091150484839583A683B7830E94A41705
:1012B0008DB79EB708960FB6F8949EBF0FBE8DBF30
:1012C0000E94640508958091CD039091CE03892BEF
:1012D00019F423ED32E002C029ED32E000D000D055
:1012E00000D0EDB7FEB731968DE594E0ADB7BEB74F
:1012F00012969C938E9311978EED92E09383828346
:10130000358324830E94A417EDB7FEB7319685E399
:1013100094E0ADB7BEB712969C938E9311978DEE65
:1013200092E09383828380910B0490910C049583C7
:1013300084830E94A4178DB79EB706960FB6F894C3
:101340009EBF0FBE8DBF0E94640508958DE594E099
:101350006FEF72E00E94721785E394E060E173E042
:101360000E9472170E9464050895883A11F482EA77
:101370000895883B11F485EB0895803C28F0E82F10
:10138000F0E0E158FD4F80810895AA98A9989FEF59
:101390009ABB8BBB84E08A95F1F7A89A8EE08A9578
:1013A000F1F7A89880E090E90197F1F70895AA9ADB
:1013B000A9989FEF9ABB8BBB84E08A95F1F7A89A16
:1013C0008EE08A95F1F7A89886E69EE00197F1F7FE
:1013D0000895E82F883A11F4E2EA0AC0883B11F434
:1013E000E5EB06C0803C20F0F0E0E158FD4FE081E5
:1013F000AA9AA9988FEF8ABBEBBB84E08A95F1F794
:10140000A89A8EE08A95F1F7A89886E69EE0019763
:10141000F1F7089584B3876084BBAA98A9985FEF19
:101420005ABB86E08BBB44E0842F8A95F1F7A89ADB
:101430009EE0892F8A95F1F7A89820E030E9F9011C
:101440003197F1F7AA98A9985ABB8CE08BBB842FEF
:101450008A95F1F7A89A892F8A95F1F7A898F9014A
:101460003197F1F7AA98A9985ABB88E38BBB842FD0
:101470008A95F1F7A89A892F8A95F1F7A898F9012A
:101480003197F1F7AA98A9985ABB81E08BBB4A958E
:10149000F1F7A89A9A95F1F7A898C9010197F1F781
:1014A0000895AA98A9988FEF8ABB81E08BBB84E04E
:1014B0008A95F1F7A89A8EE08A95F1F7A89880E0CE
:1014C00090E90197F1F70895CF93DF93EB0190E056
:1014D000029626E0880F991F2A95E1F7AA98A99805
:1014E0002FEF2ABB8BBB84E08A95F1F7A89A8EE098
:1014F0008A95F1F7A89880E090E90197F1F703C089
:1015000021960E94E90988818823D1F7DF91CF9144
:101510000895CF93DF93EC0103C021960E94E9095F
:1015200088818823D1F7DF91CF910895809133048A
:10153000909134040197909334048093330401967E
:1015400081F481E090E0909334048093330480E050
:101550006DE574E00E94640A81E065E374E00E9436
:10156000640A089580918803089580918A030895FC
:101570008CE08093950010928A03089586E0809312
:10158000950081E080938A03089586E0809395001A
:1015900082E080938A03089586E08093950083E03B
:1015A00080938A03089586E08093950084E0809379
:1015B0008A0308951F93182F9A01AB0160E070E130
:1015C0008EE090E00E94C01B215030401BB888E1A3
:1015D0008AB98CE0809395003093900029B980936C
:1015E000950010928A03812F83708093880310786E
:1015F00010938903882359F0129A813021F454986A
:101600001A9A579807C0823029F4549A1A981038B9
:1016100009F4579A1F91089580918803882339F01F
:101620001A9A549880E098E40197F1F75798089532
:1016300080918803882389F05E9BFECF8CEC9CE12F
:101640000197F1F7549A1A9880E098E40197F1F71E
:1016500080918903803809F4579A08955D9BFECFE5
:101660008CB980E090E008955F9BFECF8CB190E054
:1016700008952BB130E020783070C9010895982F7B
:101680008A3341F48093C50481E0809385031092EE
:1016900084030EC080918503882351F080918503D7
:1016A000E82FF0E0EB53FB4F90838F5F809385032F
:1016B0008091C5048A33B1F4E0918503F0E0ED53E5
:1016C000FB4F80818D3071F4E0918503F0E0EC53A5
:1016D000FB4F80818A3031F481E080938403109243
:1016E0008503089580918503803421F41092850349
:1016F000109284030895982F833241F48093C50497
:1017000081E080938503109284030EC0809185034D
:10171000882351F080918503E82FF0E0EB53FB4FD5
:1017200090838F5F809385038091C504833271F429
:10173000E0918503F0E0EC53FB4F80818D3031F474
:1017400081E080938403109285030895809185033E
:10175000803421F410928503109284030895982F09
:10176000863041F48093C5041092850381E0809314
:1017700084031AC08B3111F0853141F49093C50474
:1017800081E080938503109284030EC080918503CD
:10179000882351F080918503E82FF0E0EB53FB4F55
:1017A00090838F5F809385038091C5048B3141F4D2
:1017B000E0918503F0E0EC53FB4F8081843041F0F1
:1017C0008091C504853151F480918503843031F4D2
:1017D00081E08093840310928503089580918503AE
:1017E000803421F41092850310928403089580912F
:1017F0008B03089580918D0308958CE080939D0064
:1018000010928D03089586E080939D0081E080937F
:101810008D03089586E080939D0082E080938D0380
:10182000089586E080939D0083E080938D03089562
:1018300086E080939D0084E080938D0308951F933C
:10184000182F9A01AB0160E070E18EE090E00E94F9
:10185000C01B2150304010929B0088E180939A0079
:101860008CE080939D0030939800209399008093A2
:101870009D0010928D03812F837080938B031078CD
:1018800010938C038823A9F0129A813051F480912F
:101890009A008F7E80939A001A9A80919A008F778F
:1018A0000DC0823069F480919A00806180939A0023
:1018B0001A98103829F480919A00806880939A00D1
:1018C0001F91089580918B03882379F01A9A809153
:1018D0009A008F7E80939A0080E098E40197F1F758
:1018E00080919A008F7780939A00089580918B035E
:1018F0008823D9F080919B0086FFFCCF8CEC9CE183
:101900000197F1F780919A00806180939A001A986C
:1019100080E098E40197F1F780918C03803829F4F6
:1019200080919A00806880939A000895982F809102
:101930009B0085FFFCCF90939C0080E090E0089591
:1019400080919B0087FFFCCF80919C0090E00895E0
:1019500020919B0030E020783070C9010895982FC5
:101960008A3341F48093850481E080938703109249
:1019700086030EC080918703882351F080918703EE
:10198000E82FF0E0EB57FB4F90838F5F8093870346
:10199000809185048A33B1F4E0918703F0E0ED573C
:1019A000FB4F80818D3071F4E0918703F0E0EC57BC
:1019B000FB4F80818A3031F481E08093860310925E
:1019C0008703089580918703803421F41092870360
:1019D000109286030895982F833241F480938504F2
:1019E00081E080938703109286030EC08091870365
:1019F000882351F080918703E82FF0E0EB57FB4FED
:101A000090838F5F8093870380918504833271F484
:101A1000E0918703F0E0EC57FB4F80818D3031F48B
:101A200081E0809386031092870308958091870355
:101A3000803421F410928703109286030895982F22
:101A4000863041F4809385041092870381E080936F
:101A500086031AC08B3111F0853141F490938504CF
:101A600081E080938703109286030EC080918703E4
:101A7000882351F080918703E82FF0E0EB57FB4F6C
:101A800090838F5F80938703809185048B3141F42D
:101A9000E0918703F0E0EC57FB4F8081843041F008
:101AA00080918504853151F480918703843031F42D
:101AB00081E08093860310928703089580918703C5
:101AC000803421F410928703109286030895982F92
:101AD0008E3789F480918703882369F410928603F6
:101AE00080918703E82FF0E0EB57FB4F90838F5FE7
:101AF0008093870314C080918703882381F08091AD
:101B00008703843060F480918703E82FF0E0EB577F
:101B1000FB4F90838F5F80938703109286038091A1
:101B200085048E3751F480918703843031F410920C
:101B3000870381E080938603089580918703803432
:101B400069F425E834E0C90160E070E040E450E069
:101B50000E946B1710928703109286030895982FA6
:101B60008E3371F08A3061F080918703E82FF0E0C6
:101B7000EB57FB4F90838F5F809387031092860310
:101B8000E0918703F0E025E834E0EC57FB4F8081DB
:101B90008D30A1F481E080938603809187038034A7
:101BA00050F480918703E82FF0E0E20FF31F1082DA
:101BB0008F5F809387031092870308958091870336
:101BC000803459F4C90160E070E040E450E00E94C4
:101BD0006B17109287031092860308951F920F923D
:101BE0000FB60F920BB60F9211242F933F934F9382
:101BF0005F936F937F938F939F93AF93BF93EF9375
:101C0000FF9380919C0090918D03923091F09330DE
:101C100028F4992341F09130A1F408C0933061F089
:101C2000943079F40CC00E94AF0C0BC00E94EB0CF6
:101C300008C00E94AF0D05C00E94670D02C00E943F
:101C40001F0DFF91EF91BF91AF919F918F917F9168
:101C50006F915F914F913F912F910F900BBE0F901D
:101C60000FBE0F901F901895982F8E3789F4809192
:101C70008503882369F41092840380918503E82FFB
:101C8000F0E0EB53FB4F90838F5F8093850314C08C
:101C900080918503882381F080918503843060F4EE
:101CA00080918503E82FF0E0EB53FB4F90838F5F2B
:101CB00080938503109284038091C5048E3751F47C
:101CC00080918503843031F41092850381E0809304
:101CD0008403089580918503803469F425EC34E011
:101CE000C90160E070E040E450E00E946B17109280
:101CF0008503109284030895982F8E3371F08A30F3
:101D000061F080918503E82FF0E0EB53FB4F908367
:101D10008F5F8093850310928403E0918503F0E048
:101D200025EC34E0EC53FB4F80818D30A1F481E051
:101D30008093840380918503803450F480918503DF
:101D4000E82FF0E0E20FF31F10828F5F809385038E
:101D500010928503089580918503803459F4C90158
:101D600060E070E040E450E00E946B171092850341
:101D70001092840308951F920F920FB60F920BB624
:101D80000F9211242F933F934F935F936F937F9301
:101D90008F939F93AF93BF93EF93FF938CB19091E9
:101DA0008A03923091F0933028F4992341F09130D6
:101DB000A1F408C0933061F0943079F40CC00E9413
:101DC0003F0B0BC00E947B0B08C00E947C0E05C01D
:101DD0000E94340E02C00E94AF0BFF91EF91BF91A1
:101DE000AF919F918F917F916F915F914F913F91B3
:101DF0002F910F900BBE0F900FBE0F901F90189554
:101E0000EF92FF920F931F93CF93DF93DC01EB01CF
:101E1000F42EE52E890140918B03423079F41A9A11
:101E200080919A008F7E80939A0080E098E40197D9
:101E3000F1F780919A008F7780939A0080918D03BB
:101E40008823A9F490E007C080919B0085FFFCCF18
:101E5000E0939C009F5FFD01E90FF11DE081EA30F6
:101E600099F780919B0085FFFCCF8AE066C08130A6
:101E7000A9F490E007C080919B0085FFFCCFE09320
:101E80009C009F5FFD01E90FF11DE081ED3099F7A6
:101E900080919B0085FFFCCF8DE04FC0833091F493
:101EA00020E030E0FD01E20FF31FE08180919B0014
:101EB00085FFFCCFE0939C002F5F3F4F243031051E
:101EC00089F73DC08430D9F58C91833031F480910D
:101ED0009B0085FFFCCF83E030C0863031F48091D9
:101EE0009B0085FFFCCF86E028C0853111F090E093
:101EF00019C020E030E0FD01E20FF31FE081809186
:101F00009B0085FFFCCFE0939C002F5F3F4F243068
:101F1000310589F714C080919B0085FFFCCFE093C9
:101F20009C009F5FFD01E90FF11DE081E43099F70E
:101F300080919B0085FFFCCF84E080939C002097DC
:101F400031F4423011F40E94760C10E048C00E9437
:101F5000760CC8010E943011082F25C080919A008C
:101F60008F7780939A00809186038823B9F010922E
:101F700086038F2D9E2D9C01F9012134310510F02F
:101F8000E0E4F0E025E834E0CE01B901AF010E94C1
:101F90006217802F0E946D1110E00BC080919A0093
:101FA000806880939A00802F0E941D11892BB1F6C2
:101FB00017E0802F0E946D1180918B03813079F49E
:101FC0001A9A80919A008F7E80939A0080E098E41C
:101FD0000197F1F780919A008F7780939A00812F73
:101FE000DF91CF911F910F91FF90EF900895EF92A5
:101FF000FF920F931F93CF93DF93DC01EB01F42E3D
:10200000E52E890120918803223039F41A9A5498D8
:1020100080E098E40197F1F7579880918A0388232C
:1020200079F404C05D9BFECFECB98F5FFD01E80F32
:10203000F11DE081EA30B1F75D9BFECF8AE02EC052
:10204000843069F58C91833021F45D9BFECF83E071
:1020500025C0863021F45D9BFECF86E01FC0853110
:1020600011F080E012C080E090E0FD01E80FF91F60
:10207000E0815D9BFECFECB9019684309105A9F714
:102080000EC05D9BFECFECB98F5FFD01E80FF11D27
:10209000E081E430B1F75D9BFECF84E08CB92097FE
:1020A00031F4223011F40E94180B10E038C00E9465
:1020B000180BC8010E943011082F1DC0579880913D
:1020C00084038823B9F0109284038F2D9E2D9C01E8
:1020D000F9012134310510F0E0E4F0E025EC34E0C2
:1020E000CE01B901AF010E946217802F0E946D11CD
:1020F00010E007C0579A802F0E941D11892BF1F61E
:1021000017E0802F0E946D1180918803813039F48F
:102110001A9A549880E098E40197F1F75798812F24
:10212000DF91CF911F910F91FF90EF900895BF9A8B
:102130000895AF92BF92CF92DF92EF92FF920F93EA
:102140001F93C79AA0E0B0E0BC01CD010E94751AB0
:102150005B016C0126E636E646E655E40E94031B69
:102160007B018C0120E030E040E85FE30E94451AEB
:1021700088231CF461E070E024C0C801B70120E0AE
:102180003FEF4FE757E40E94FF1A1816B4F4C60158
:10219000B50120E030E040E251E40E94031B0E94C0
:1021A000491A80E791E005C0FC013197F1F76150D1
:1021B000704061157105C1F707C0C801B7010E94E1
:1021C000491ACB010197F1F7C7981F910F91FF9022
:1021D000EF90DF90CF90BF90AF9008959C014FB7E4
:1021E000F894C79A80910705909108058217930784
:1021F00038F080910705909108058F5F9F4F21F47B
:1022000030930805209307054FBF089580E090E0C4
:102210002FEF3FEFFC01EE0FFF1FEB5FFA4F318313
:102220002083019680329105A9F787B7826087BF26
:1022300083E781BF8DE083BF08959FB7F894803214
:1022400018F0E0E0F0E009C0E82FF0E0EE0FFF1F2B
:10225000EB5FFA4F0190F081E02D9FBFCF01089511
:102260009C015FB7F894A2E0B0E04A2FFD01EE0FA9
:10227000FF1FEB5FFA4F808191818F5F9F4F71F459
:102280008FEF2F3F380711F42EEF3FEFAA0FBB1F40
:10229000AB5FBA4F11963C932E9305C04F5F1196DA
:1022A000A032B10511F75FBF842F08952FB7F894BE
:1022B0003FEF8F3F930711F48EEF9FEF909306054A
:1022C000809305052FBF2FB7F89480910505909155
:1022D00006052FBF892BB9F70895E82F2FB7F8947B
:1022E00082508E3148F4F0E0EE0FFF1FEB5FFA4FA3
:1022F0008FEF9FEF918380832FBF089583B7887FEF
:1023000083BF089583B7856083BF08951F920F929E
:102310000FB60F920BB60F9211242F933F934F934A
:102320005F936F937F938F939F93AF93BF93EF933D
:10233000FF9320E030E0F901EE0FFF1FEB5FFA4F53
:1023400080819181892B51F0808191818F5F9F4F96
:1023500029F0808191810197918380832F5F3F4F86
:102360002032310541F780910705909108050197CA
:1023700009F4C7980E94DD0380917F039091800348
:1023800001979093800380937F030196C9F4809115
:102390008E0390918F03A0919003B09191030196C9
:1023A000A11DB11D80938E0390938F03A093900382
:1023B000B09391038AEE93E09093800380937F0320
:1023C0008091920390919303A0919403B09195030F
:1023D0000196A11DB11D8093920390939303A09346
:1023E0009403B0939503FF91EF91BF91AF919F91AB
:1023F0008F917F916F915F914F913F912F910F90AE
:102400000BBE0F900FBE0F901F90189520E030E08C
:10241000F901E354FA4F1082C901880F991FF9019D
:1024200045E0EE0FFF1F4A95E1F7E81BF90BEB5B68
:10243000FA4F80E090E01192119201968F30910551
:10244000D1F72F5F3F4F2430310511F70895809168
:1024500096038F5F80939603843011F41092960355
:1024600081E080939703089580919603882319F45F
:1024700084E0809396038091960381508093960325
:1024800081E080939703089580919603282F30E090
:10249000F901E354FA4F80818F5F80838F3009F414
:1024A0001082D901A354BA4F8C91F90174E0EE0F58
:1024B000FF1F7A95E1F7E21BF30BE80FF11DEE0F1A
:1024C000FF1FEB5BFA4F80819181892B09F41C92ED
:1024D00081E080939703089580919603A82FB0E040
:1024E000FD01E354FA4F8081882311F48FE080834B
:1024F000FD01E354FA4F40819D0194E0220F331F08
:102500009A95E1F72A1B3B0B4150F901E40FF11DAD
:10251000EE0FFF1FEB5BFA4F80819181892B31F425
:10252000442391F7A354BA4F1C9203C0A354BA4F4B
:102530004C9381E0809397030895809196030895CA
:1025400080919603EDEBF5E0E80FF11D8081089591
:102550008091960390E0FC01E354FA4F2081FC0146
:1025600034E0EE0FFF1F3A95E1F7E81BF90BE20F9D
:10257000F11DEE0FFF1FEB5BFA4F0190F081E02D94
:1025800009950895FB018F708A3010F4805D01C0B9
:10259000895C808380E00895FB01982F92959F705D
:1025A0009A3010F4905D01C0995C90838F708A30EE
:1025B00010F4805D01C0895C818380E00895FF9202
:1025C0000F931F93F82E8B01892F0E94CC120E5F60
:1025D0001F4F8F2DB8010E94CC1280E01F910F91E8
:1025E000FF900895982FFB018154863020F4975373
:1025F000908380E00895892F80538A3010F082E024
:102600000895808380E00895FC01DB019081892F8B
:102610008154863018F4292F275306C0292F2053C0
:102620002A3010F082E00895322F3295307F3C93AB
:102630009181892F8154863010F4975306C09053AE
:102640009A3018F0922F82E001C080E0390F3C935D
:102650000895CF92DF92EF92FF920F931F93DF9333
:10266000CF930F92CDB7DEB77C018B016E0108943A
:10267000C11CD11CB6010E940413382F882391F489
:102680008981F80110828183C7010296B6010E94F8
:102690000413382F2981F80180819181820F911DC7
:1026A00091838083832F0F90CF91DF911F910F91A2
:1026B000FF90EF90DF90CF9008956F927F928F926E
:1026C0009F92AF92BF92CF92DF92FF920F931F9390
:1026D000DF93CF930F92CDB7DEB75C016B014A0158
:1026E000FF2400E010E03E010894611C711C0CC046
:1026F000C501800F911FB3010E940413882369F460
:102700000E5F1F4F8981F80E0C151D0588F38F2D64
:102710008195B4010E94CC1280E00F90CF91DF919F
:102720001F910F91FF90DF90CF90BF90AF909F903F
:102730008F907F906F900895CF92DF92FF920F93CA
:102740001F93CF93DF938C016B01DC015C968C911E
:102750005C97813039F411968C91833019F48BE3B6
:1027600090E002C081E190E04817590710F494E02E
:1027700065C0F6018AE38193D8018C91BF010E9464
:10278000CC12B6016D5F7F4FF80181810E94CC129F
:10279000E6012596D8015C968C915C97813071F4A6
:1027A00011968C911197833049F412968C91880F71
:1027B000BE010E94CC12E601279607C0F801828173
:1027C0009381BE010E94DF122496D80114968D9148
:1027D0009C911597BE010E94DF122496F801848D0A
:1027E0008130D9F481818330C1F4FF24F3940BC08C
:1027F000EE0FFF1FE00FF11F84819581BE010E9443
:10280000DF122496F394EF2DF0E0D80112968D910B
:102810009C911397E817F90758F3B60160957095E6
:102820006C0F7D1FC6010196AE010E945D13982FAB
:10283000882321F48DE08A838AE08B83892FDF91BE
:10284000CF911F910F91FF90DF90CF900895AF929D
:10285000BF92CF92DF92EF92FF920F931F93DF937D
:10286000CF9300D00F92CDB7DEB76C018B018DE115
:10287000FB0111928A95E9F7F60160E070E0808132
:102880008D30B9F481818A30A1F442E0A42EB12CBC
:10289000A60EB71E76010894E11CF11C635070402F
:1028A000C701AE014E5F5F4F0E945D13882349F060
:1028B0008CC06F5F7F4F31966B33710501F785E0F8
:1028C00084C0F601EA0DFB1D34979A81808134960D
:1028D000981709F077C033979B818081981709F08A
:1028E00071C0C701B8010E940413882309F06DC0AC
:1028F00033E0E32EF12CEC0CFD1CB8016F5F7F4F31
:10290000C7010E940413882309F05FC0F801818188
:10291000833009F044C0F1E1AF16B10409F43FC0BF
:1029200081E0F801848F25E0E22EF12CEC0CFD1CF7
:10293000C701BE016F5F7F4F0E940413D82E88230A
:1029400009F042C0898186958C3018F08CE090E0C7
:1029500001C090E0F8019383828382E090E0E80E6A
:10296000F91E198212C0660F771F6C5F7F4F600FD0
:10297000711FC7010E942913882339F589818F5F50
:102980008983E4E0F0E0EE0EFF1E8981682F70E09D
:10299000F801828193816817790728F315C0F8013F
:1029A000148EB8016E5F7F4FC70102960E942913F3
:1029B000882359F40C5F1F4FC7010696B8010E9487
:1029C000291303C083E001C08D2D0F900F900F904D
:1029D000CF91DF911F910F91FF90EF90DF90CF90FB
:1029E000BF90AF900895EF92FF920F931F93DF93E4
:1029F000CF93CDB7DEB7C456D0400FB6F894DEBF44
:102A00000FBECDBF8C018BE1898384E58A8381E38E
:102A10008B830F33110511F48FE301C080E38C83A6
:102A200084E08D831E82BE016F5F7F4FCB0142E346
:102A300050E024E630E00E94000F882349F08093A4
:102A4000C3051092C405EE24EA94FE2C870194C0BD
:102A500089810F33110509F067C08B3109F06CC013
:102A60006C8170E060537040882777FD8095982FC7
:102A700020EA36E841E050E00E948E1B7B018C0189
:102A80008D8190E0C09720E137E2AC01429FC00108
:102A9000439F900D529F900D1124AA2797FDA0955A
:102AA000BA2FE80EF91E0A1F1B1F898590E0C097F8
:102AB000AA2797FDA095BA2FE80EF91E0A1F1B1F23
:102AC0008E8190E0C09728EE33E0AC01429FC001B8
:102AD000439F900D529F900D1124AA2797FDA0951A
:102AE000BA2FE80EF91E0A1F1B1F8F8124E6829F52
:102AF000C0011124805C9241AA2797FDA095BA2FAE
:102B0000E80EF91E0A1F1B1F88852AE0829FC0015C
:102B10001124805E9140AA2797FDA095BA2FE80E58
:102B2000F91E0A1F1B1F28C0863031F491E0E92EE0
:102B3000F12C012D112D20C08531B1F48C8190E054
:102B4000805D94412A8144E6249F90011124820FE4
:102B5000931F2B814AE0249F90011124820F931F21
:102B60009093C2058093C1058EEFE82E8FEFF82E6B
:102B70008FEF082F8FEF182FB701C801CC59DF4F07
:102B80000FB6F894DEBF0FBECDBFCF91DF911F917E
:102B90000F91FF90EF9008950F931F93DF93CF93C2
:102BA000CDB7DEB7C456D0400FB6F894DEBF0FBE27
:102BB000CDBF8B019BE1998391E59A83805D8B83E7
:102BC0006F33710511F48FE306C06115710511F4BF
:102BD0008EE401C089E58C8384E08D831E82BE0172
:102BE0006F5F7F4FCB0142E350E024E630E00E946C
:102BF000000F882339F08093C3051092C4052FEF8E
:102C00003FEF2BC089810F33110541F48B3159F40B
:102C100020E030E08C81893501F502C0863019F45E
:102C200021E030E01AC08531B1F48C8190E0805D04
:102C300094412A8144E6249F90011124820F931F1E
:102C40002B814AE0249F90011124820F931F9093BF
:102C5000C2058093C1052EEF3FEFC901CC59DF4F6C
:102C60000FB6F894DEBF0FBECDBFCF91DF911F919D
:102C70000F9108950F931F93DF93CF93CDB7DEB7D6
:102C8000C456D0400FB6F894DEBF0FBECDBF8B0147
:102C90009BE1998390E59A83805D8B836F33710507
:102CA00029F48FE38C83A4E0B0E021C0CB0168EE6F
:102CB00073E00E94AD1B9C0164E670E00E94AD1BB6
:102CC000605D6C83C90164E670E00E94AD1B9C01ED
:102CD0006AE070E00E94AD1B605D6D83C9016AE02F
:102CE00070E00E94AD1B805D8E83A6E0B0E0BE0167
:102CF0006F5F7F4FFB01EA0FFB1F84E08083AC0F07
:102D0000BD1F12961C92CB0142E350E024E630E056
:102D10000E94000F882339F08093C3051092C405E8
:102D20004FEF5FEF39C089810F331105B1F48B315B
:102D3000C9F48E81482F50E0405D54418C8124E6D7
:102D4000829FC0011124480F591F8D812AE0829F64
:102D5000C0011124480F591F1FC0863019F441E0EB
:102D600050E01AC08531B1F48C8190E0805D9441CF
:102D70002A8144E6249F90011124820F931F2B8106
:102D80004AE0249F90011124820F931F9093C20563
:102D90008093C1054EEF5FEFCA01CC59DF4F0FB6EC
:102DA000F894DEBF0FBECDBFCF91DF911F910F9181
:102DB0000895DF93CF93CDB7DEB7C456D0400FB69A
:102DC000F894DEBF0FBECDBFE82F9B01CA0160E1C2
:102DD00077E20E94AD1B482FF92F232B11F49EE4BC
:102DE00001C099E58BE189838BE58A83E05DEB8304
:102DF0009C83842F9F2F68EE73E00E94AD1B605D63
:102E00006D83842F9F2F68EE73E00E94AD1B9C01A1
:102E100064E670E00E94AD1B605D6E83C90164E6EC
:102E200070E00E94AD1B9C016AE070E00E94AD1B47
:102E3000605D6F83C9016AE070E00E94AD1B805D38
:102E4000888784E089871A86BE016F5F7F4FCB0138
:102E500042E350E024E630E00E94000F882339F07E
:102E60008093C3051092C4052FEF3FEF20C08981E6
:102E7000863019F421E030E01AC08531B1F48C813C
:102E800090E0805D94412A8144E6249F90011124C2
:102E9000820F931F2B814AE0249F90011124820FFF
:102EA000931F9093C2058093C1052EEF3FEFC90198
:102EB000CC59DF4F0FB6F894DEBF0FBECDBFCF9118
:102EC000DF910895FB01DC0102C001900D92415099
:102ED0005040D8F70895DC0101C06D934150504037
:102EE000E0F70895FB01DC0101900D920020E1F76D
:102EF0000895DF92EF92FF920F931F937B018C0155
:102F0000FB010995D82EC8010196F7010995982F64
:102F10008D2D1F910F91FF90EF90DF900895DF921C
:102F2000EF92FF920F931F93D72E7A018C01FA0133
:102F30000995C80101966D2DF70109951F910F9113
:102F4000FF90EF90DF900895AEE0B0E0EAEAF7E19D
:102F50000C94041C0D891E8986E08C831A830983D6
:102F60008FEF9FE79E838D839E01275E3F4FCE01AB
:102F700001966F89788DA9010E94C8172F81388525
:102F8000020F131FF80110822E96E4E00C94201C0F
:102F9000ABE0B0E0EEECF7E10C94F61B3C012B014A
:102FA0005A01FC0117821682838181FD03C06FEFF5
:102FB0007FEFC6C19AE0892E1E010894211C311CA6
:102FC000F3012381F20123FD859123FF81912F01DC
:102FD000882309F4B2C1853239F423FD859123FF9A
:102FE00081912F01853229F490E0B3010E94BB1931
:102FF000E7CF982FFF24EE249924FFE1FF15D0F0AE
:103000009B3269F09C3228F4903259F0933291F45B
:103010000EC09D3249F0903369F441E024C052E083
:10302000F52A84E0F82A28C098E0F92A25C0E0E1D2
:10303000FE2A22C0F7FC29C0892F80538A3070F401
:10304000F6FE05C0989C902C1124980E15C0E89CA3
:10305000E02C1124E80EF0E2FF2A0EC09E3229F483
:10306000F6FC6BC140E4F42A07C09C3619F450E822
:10307000F52A02C0983649F4F20123FD959123FF09
:1030800091912F01992309F0B8CF892F855483306E
:1030900018F08052833038F444E050E0A40EB51E9E
:1030A0005FE359830FC0933631F0933779F093354E
:1030B00009F056C020C0F5018081898342E050E0CC
:1030C000A40EB51E610101E010E012C0F501C08040
:1030D000D180F6FC03C06FEF7FEF02C0692D70E076
:1030E00042E050E0A40EB51EC6010E94B0198C014A
:1030F0005FE7F52214C0F501C080D180F6FC03C063
:103100006FEF7FEF02C0692D70E042E050E0A40E47
:10311000B51EC6010E94A5198C0150E8F52AF3FEE0
:1031200007C01AC080E290E0B3010E94BB19EA9484
:103130008E2D90E008171907A8F30EC0F601F7FCD2
:103140008591F7FE81916F0190E0B3010E94BB1958
:10315000E110EA94015010400115110579F7EAC019
:10316000943611F0993669F5F7FE08C0F501208113
:1031700031814281538184E090E00AC0F501808171
:1031800091819C01442737FD4095542F82E090E0C7
:10319000A80EB91E9FE6F92257FF09C05095409529
:1031A000309521953F4F4F4F5F4FE0E8FE2ACA010F
:1031B000B901A1012AE030E00E94E719D82ED21807
:1031C00040C0953729F41F2D1F7E2AE030E01DC036
:1031D0001F2D197F9F3661F0903720F4983509F044
:1031E000ACC00FC0903739F0983709F0A6C004C0C2
:1031F00028E030E00AC0106114FD146020E130E0E6
:1032000004C014FD166020E132E017FF08C0F5018C
:10321000608171818281938144E050E008C0F501B2
:1032200080819181BC0180E090E042E050E0A40EFA
:10323000B51EA1010E94E719D82ED2188FE7F82EEB
:10324000F122F6FE0BC05EEFF522D91438F4F4FE3D
:1032500007C0F2FC05C08FEEF82202C01D2D01C090
:10326000192DF4FE0DC0FE01ED0DF11D808180339E
:1032700019F499EEF92208C01F5FF2FE05C003C0E1
:103280008F2D867809F01F5F0F2DF3FC14C0F0FE20
:103290000FC01E1510F09D2C0BC09D2C9E0C911A7A
:1032A0001E2D06C080E290E0B3010E94BB191F5F93
:1032B0001E15C0F304C01E1510F4E11A01C0EE245F
:1032C00004FF0FC080E390E0B3010E94BB1902FF2E
:1032D0001DC001FD03C088E790E00EC088E590E0C6
:1032E0000BC0802F867891F001FF02C08BE201C0F5
:1032F00080E2F7FC8DE290E0B3010E94BB1906C0AA
:1033000080E390E0B3010E94BB199A94D914C0F3F2
:10331000DA94F101ED0DF11D808190E0B3010E947E
:10332000BB19DD20A9F706C080E290E0B3010E943E
:10333000BB19EA94EE20C1F743CEF3016681778191
:10334000CB012B96E2E10C94121CFC01059061501C
:1033500070400110D8F7809590958E0F9F1F0895AB
:10336000FC016150704001900110D8F78095909554
:103370008E0F9F1F08950F931F93CF93DF938C01A0
:10338000EB018B8181FF1BC082FF0DC02E813F812D
:103390008C819D812817390764F4E881F9810193B4
:1033A000F983E88306C0E885F985802F0995892B84
:1033B00031F48E819F8101969F838E8302C00FEF2F
:1033C0001FEFC801DF91CF911F910F910895FA016E
:1033D000AA27283051F1203181F1E8946F936E7F54
:1033E0006E5F7F4F8F4F9F4FAF4FB1E03ED0B4E045
:1033F0003CD0670F781F891F9A1FA11D680F791F86
:103400008A1F911DA11D6A0F711D811D911DA11D96
:1034100020D009F468943F912AE0269F11243019A6
:10342000305D3193DEF6CF010895462F4770405D41
:103430004193B3E00FD0C9F7F6CF462F4F70405DF0
:103440004A3318F0495D31FD4052419302D0A9F74B
:10345000EACFB4E0A6959795879577956795BA9545
:10346000C9F700976105710508959B01AC010A2E0B
:1034700006945795479537952795BA95C9F7620FE2
:10348000731F841F951FA01D08956CD008F481E060
:10349000089594D088F09F5790F0B92F9927B7518D
:1034A000A0F0D1F0660F771F881F991F1AF0BA9508
:1034B000C9F712C0B13081F09BD0B1E0089598C037
:1034C000672F782F8827B85F39F0B93FCCF38695FE
:1034D00077956795B395D9F73EF49095809570955B
:1034E00061957F4F8F4F9F4F0895E89409C097FBD8
:1034F0003EF490958095709561957F4F8F4F9F4FCB
:103500009923A9F0F92F96E9BB279395F69587950E
:1035100077956795B795F111F8CFFAF4BB0F11F4D1
:1035200060FF1BC06F5F7F4F8F4F9F4F16C0882378
:1035300011F096E911C0772321F09EE8872F762FAE
:1035400005C0662371F096E8862F70E060E02AF0EF
:103550009A95660F771F881FDAF7880F96958795DB
:1035600097F90895990F0008550FAA0BE0E8FEEFB0
:1035700016161706E807F907C0F012161306E40737
:10358000F50798F0621B730B840B950B39F40A2630
:1035900061F0232B242B252B21F408950A2609F40E
:1035A000A140A6958FEF811D811D089557FD90586C
:1035B000440F551F59F05F3F71F04795880F97FBF7
:1035C000991F61F09F3F79F08795089512161306B1
:1035D0001406551FF2CF4695F1DF08C016161706E0
:1035E0001806991FF1CF8695710561050894089515
:1035F000E894BB2766277727CB0197F90895B2DFB8
:1036000008F48FEF08950BD078C069D028F06ED001
:1036100018F0952309F05AC05FC01124EACFC6DF25
:10362000A0F3959FD1F3950F50E0551F629FF001D5
:10363000729FBB27F00DB11D639FAA27F00DB11D2E
:10364000AA1F649F6627B00DA11D661F829F2227B7
:10365000B00DA11D621F739FB00DA11D621F839F3E
:10366000A00D611D221F749F3327A00D611D231F14
:10367000849F600D211D822F762F6A2F11249F5762
:1036800050408AF0E1F088234AF0EE0FFF1FBB1F85
:10369000661F771F881F91505040A9F79E3F510524
:1036A00070F014C0A6CF5F3FECF3983EDCF3869534
:1036B00077956795B795F795E7959F5FC1F7FE2BCF
:1036C000880F911D9695879597F9089597F99F67AB
:1036D00080E870E060E008959FEF80EC089500249A
:1036E0000A941616170618060906089500240A9467
:1036F00012161306140605060895092E0394000CED
:1037000011F4882352F0BB0F40F4BF2B11F460FF7B
:1037100004C06F5F7F4F8F4F9F4F0895629FD0010E
:10372000739FF001829FE00DF11D649FE00DF11D7C
:10373000929FF00D839FF00D749FF00D659FF00D2B
:103740009927729FB00DE11DF91F639FB00DE11D18
:10375000F91FBD01CF011124089597FB092E0726FB
:103760000AD077FD04D02ED006D000201AF4709530
:1037700061957F4F0895F6F7909581959F4F089535
:10378000A1E21A2EAA1BBB1BFD010DC0AA1FBB1F65
:10379000EE1FFF1FA217B307E407F50720F0A21BD7
:1037A000B30BE40BF50B661F771F881F991F1A9444
:1037B00069F760957095809590959B01AC01BD016E
:1037C000CF010895AA1BBB1B51E107C0AA1FBB1F55
:1037D000A617B70710F0A61BB70B881F991F5A959D
:1037E000A9F780959095BC01CD0108952F923F9245
:1037F0004F925F926F927F928F929F92AF92BF9201
:10380000CF92DF92EF92FF920F931F93CF93DF93AC
:10381000CDB7DEB7CA1BDB0B0FB6F894DEBF0FBE09
:10382000CDBF09942A88398848885F846E847D8456
:103830008C849B84AA84B984C884DF80EE80FD8058
:103840000C811B81AA81B981CE0FD11D0FB6F894CE
:0E385000DEBF0FBECDBFED010895F894FFCF8F
:10385E00FFFF320005000A00C2C5D0D1C8DF20CF5D
:10386E00CE3A20202020202000252D313673003224
:10387E003031303036323700C7C0C2CEC4D1CAC89C
:10388E00C520D3D1D2C0CD2E00C2CED1D1D2C0CD83
:10389E00CEC2CBC5CDDB20202000C2CED1D1D2C02E
:1038AE00CDCEC2C8D2DC2020202000D3D1D2C0CDB4
:1038BE00CEC2CAC82020202020202000D1CED5D0B4
:1038CE00C0CDC5CDDB2020202020202000D1CED59C
:1038DE00D0C0CDC8D2DC2020202020202000CFCE8A
:1038EE00D1CB2E20CED8C8C1CAC03A252D33640004
:1038FE00CFCED1CB2E204E414B3A253033642020F3
:10390E002000D1CACED0CED1D2DC20CFCED0D2C0E4
:10391E00202000CFD0C8CDD2C5D0C03A252D366CD0
:10392E0064200050433A252D366C64202020202040
:10393E0020202020202000C0C4D0C5D120D3D1D239
:10394E00D0CEC9D1D2C2C000252D31366400CECA28
:10395E00202020202020202020202020202000CECB
:10396E00D8C8C1CAC020202020202020202020001E
:10397E002020202020202020202020202020202039
:10398E002020202000D1C1D0CED1C8D2DC20D1D76A
:10399E00C5D2D7C8CA0020202020202020202020D9
:1039AE002020202020200020202020202020202029
:1039BE00202020202020202000D3D1D2C0CDCEC266
:1039CE00C8D2DC2020202020202000D1CECEC1D98C
:1039DE00C5CDC8C53A256420202020202000C2DB9A
:1039EE00CACBDED7C8D2DC20CFC5D7C0D2DC2000F0
:1039FE00C2CACBDED7C8D2DC20CFC5D7C0D2DC201E
:103A0E002000D1D7C5D2D7C8CA20CFD0CEC4D3CAF2
:103A1E00D2C0002530366C642020202020202020AB
:103A2E00202000C2DBCACB2E00C2CACB2E00CFC5CF
:103A3E00D7C0D2DC3A2535732020202000D1CECE3F
:103A4E00C1D9C5CDC8C53A2530336420202000CE5B
:103A5E00C0CE20CDCFCF20D1C8D1D2C5CCC0200072
:103A6E002020202020CBCCCFD22D31202020202072
:103A7E000060090000C012000080250000004B000D
:103A8E00000096000000E1000000C20100010041AC
:103A9E00A042A1E045A3A4A5A64BA74D484FA85010
:103AAE004354A9AA58E1ABACE2ADAE62AFB0B1617E
:103ABE00B2B3B4E365B6B7B8B9BABBBCBD6FBE702E
:103ACE0063BF79E478E5C0C1E6C2C3C4C5C6C7EA20
:023ADE000300E3
:00000001FF
