:100000000C9446000C9466000C9466000C946600F8
:100010000C9466000C9466000C9466000C946600C8
:100020000C9466000C9466000C9466000C946600B8
:100030000C9466000C9466000C9466000C94030CFF
:100040000C9466000C9466000C9438090C946600BD
:100050000C9466000C9466000C9466000C94660088
:100060000C9466000C9466000C9466000C94660078
:100070000C9466000C9466000C946B080C9466005B
:100080000C9466000C9466000C94660011241FBE4C
:10009000CFEFD0E1DEBFCDBF11E0A0E0B1E0E2E8FC
:1000A000F7E200E00BBF02C007900D92AE38B10737
:1000B000D9F71BBE14E0AEE8B1E001C01D92A73134
:1000C000B107E1F70E9470030C94BF130C94000079
:1000D00081E08093A2011092A30112B80895EF92DB
:1000E000FF920F931F93CF93DF9381B182958F700F
:1000F00050910101A091000100E010E0C82FD0E074
:1001000081E0E82EF12C402F2A2F30E0002E02C093
:10011000359527950A94E2F721703070B22F22238B
:1001200099F0852F90E0002E02C0959587950A944E
:10013000E2F780FF09C0CE01002E02C09595879599
:100140000A94E2F780FF4AC021153105C9F5852FD1
:1001500090E0042E02C0959587950A94E2F7FC0181
:10016000E170F07080FF19C0CE01042E02C0959599
:1001700087950A94E2F7BC016170707080FD09C038
:10018000C70102C0880F991F4A95E2F7809558234E
:100190004AC0EE2311F0662359F4EF2B89F4CE0107
:1001A000042E02C0959587950A94E2F780FF08C057
:1001B000C70102C0880F991F4A95E2F7A82B33C0E8
:1001C000BB23A9F0852F90E08C2B9D2B042E02C021
:1001D000959587950A94E2F780FD09C0C70102C092
:1001E000880F991F4A95E2F78095A8231CC0232BFE
:1001F000D1F0852F90E0042E02C0959587950A9442
:10020000E2F780FD10C0CE01042E02C095958795BF
:100210000A94E2F780FF07C0C70102C0880F991F48
:100220004A95E2F7582B0F5F1F4F0830110509F070
:100230006ACF50930101A09300018091A201952FF4
:100240009095982380958523982B9093A301DF9117
:10025000CF911F910F91FF90EF9008950E946F0032
:10026000089520E030E0682F70E042E6CB01022ED6
:1002700002C0959587950A94E2F780FF02C0C19A63
:1002800001C0C198842F8A95F1F7C29A842F8A956C
:10029000F1F7C298C198842F8A95F1F72F5F3F4FED
:1002A0002830310519F708958091A4010E94310189
:1002B000C49A82E68A95F1F7C49808959091A401B2
:1002C0008091A501891721F09093A5010E94540106
:1002D0000895B99ABA9ABC9AC198C298C4981092D3
:1002E000A4018FEF8093A50108951092C6018FEFAE
:1002F0008093CF018093CA011092C7018093D001EF
:100300008093CB011092C8018093D1018093CC01DE
:100310001092C9018093D2018093CD01E6EAF1E009
:100320001192119281E0E63CF807D1F7109261003A
:10033000A49AA59AA69AA79A0895882311F4AC982E
:1003400005C0AC9A813011F4AD9805C0AD9A8230E9
:1003500011F4AE9805C0AE9A833011F4AF980895A9
:10036000AF9A08951092C6011092C7011092C80169
:100370001092C901089540B190E083709070049686
:1003800021E030E002C0220F331F8A95E2F7842F6C
:1003900082230895CF92DF92EF92FF920F931F93E3
:1003A000DF93CF93CDB7DEB72A970FB6F894DEBFB1
:1003B0000FBECDBFE82F7E010894E11CF11C870120
:1003C0009E01255F3F4F80B1D8018D938D01A2170B
:1003D000B307C9F7F0E0DF01A153BE4F8C91E6539C
:1003E000FE4F808364E070E081E0C82ED12C1CC0F9
:1003F000808190E082239323892B09F04F5F31960F
:10040000E017F107A9F7483018F08C91822B06C04D
:10041000433028F49C91822F809589238C936F5FC1
:100420007F4F6830710551F09601062E02C0220FF1
:10043000331F0A94E2F7F70140E0DACF2A960FB6AD
:10044000F894DEBF0FBECDBFCF91DF911F910F910A
:10045000FF90EF90DF90CF900895CF93DF93982F88
:1004600096959695692F70E0FB01E153FE4F208130
:10047000A82FB0E0AD01437050704C5F5F4F30E08B
:10048000042E02C0359527950A94E2F720FF21C07B
:10049000FB01E653FE4F808190E0042E02C095954B
:1004A00087950A94E2F780FD14C0FB01EA53FE4FE2
:1004B000208181E090E002C0880F991F4A95E2F701
:1004C000282B2083AA0FBB1FAA55BE4F1D921C923A
:1004D0005CC0FB01E153FE4F808190E0042E02C01E
:1004E000959587950A94E2F780FD0DC0FB01E653D0
:1004F000FE4F808190E0042E02C0959587950A9466
:10050000E2F780FD42C0FB01E153FE4F808190E0A5
:10051000042E02C0959587950A94E2F780FD35C0B8
:10052000FB01E653FE4F808190E0042E02C09595BA
:1005300087950A94E2F780FD28C0AA0FBB1FAA5531
:10054000BE4F2D913C9111972F5F3F4F11963C93D9
:100550002E93C0910201D0910301809104019091EA
:1005600005018C0F9D1F8217930778F4FB01EA5356
:10057000FE4F208181E090E002C0880F991F4A95CC
:10058000E2F7282B2083CD93DC93DF91CF91089560
:100590000F931F9310E008E1812F0E949D01802F8F
:1005A0008A95F1F7812F0E94CA011F5F1430A1F7CD
:1005B00010E0812F0E942D021F5F1031D1F71F9193
:1005C0000F9108958091CE0181508093CE018F5F6D
:1005D00029F48AE08093CE010E94C8020895CF9347
:1005E000DF93EC0103C021960E94AB05888188232C
:1005F000D1F7DF91CF910895CF93DF93DC01FB0119
:100600008081863031F4CD0166E071E00E94750F83
:1006100028C0853119F080E090E01BC081811396DD
:100620008C931397828114968C93149783811596DB
:100630008C9315978EE48C9381E411968C9311978B
:100640008BE412968C93129716961C920AC02883FC
:10065000019621813196ED01C80FD91F2430B9F7D9
:100660001882DF91CF9108950F931F93FC011082A0
:1006700083E0818381E0848F81E090E093838283B3
:1006800006E012E0CF01B8014BE350E00E940D0EEE
:1006900080E090E90197F1F7C80160E070E040E088
:1006A00050E020E030E00E94740A1F910F910895FD
:1006B00080918F01882381F089E593E06AEA72E0F6
:1006C0000E94990E8093A80210928F01882321F432
:1006D0008AEA92E00E94340308950E94E20208959B
:1006E00081E040E052EC61E070E00E94570580E854
:1006F00040E855E260E070E00E949C060E9495068A
:100700000E94830B0E9475010E9469010E9468008B
:100710000E94830C0E94BF030E94140B789488EE01
:1007200093E00E94160B88E893E120E731E0F9019D
:100730003197F1F70197D9F788EC90E00E94160BFA
:1007400080ED97E020E731E0F9013197F1F701976B
:10075000D9F788EC90E00E94160B80ED97E020E737
:1007600031E0F9013197F1F70197D9F70E94870439
:100770000E9413050E94190D0E945803F9CF83E2CD
:1007800094E09093DA038093D9038AEF93E09093F7
:10079000F8038093F70308958091C60186FF0BC08C
:1007A0000E94E00C8091C6018F7B8093C60182E39A
:1007B00090E00E94160B8091C70186FF0BC00E943B
:1007C000BB0C8091C7018F7B8093C70182E390E0CF
:1007D0000E94160B8091C60185FF0BC00E94A40CDD
:1007E0008091C6018F7D8093C60182E390E00E94D4
:1007F000160B089581EF92E06AE071E00E94750F98
:1008000000D000D000D0EDB7FEB7319689EC92E071
:10081000ADB7BEB712969C938E9311978BE191E082
:100820009383828381E291E0958384830E947C0F8D
:100830008DB79EB706960FB6F8949EBF0FBE8DBFBC
:100840000E94CC03089581EF92E06AE271E00E9479
:10085000750F89EC92E06BE371E00E94750F0E94C6
:10086000CC030895883A11F482EA0895883B11F484
:1008700085EB0895803C28F0E82FF0E0E457FF4F27
:1008800080810895AA98A9989FEF9ABB8BBB84E0BA
:100890008A95F1F7A89A8EE08A95F1F7A89880E0FA
:1008A00090E90197F1F70895AA9AA9989FEF9ABB4A
:1008B0008BBB84E08A95F1F7A89A8EE08A95F1F7D0
:1008C000A89886E69EE00197F1F70895E82F883A08
:1008D00011F4E2EA0AC0883B11F4E5EB06C0803C63
:1008E00020F0F0E0E457FF4FE081AA9AA9988FEF3B
:1008F0008ABBEBBB84E08A95F1F7A89A8EE08A95D3
:10090000F1F7A89886E69EE00197F1F7089584B381
:10091000876084BBAA98A9985FEF5ABB86E08BBB1F
:1009200044E0842F8A95F1F7A89A9EE0892F8A9552
:10093000F1F7A89820E030E9F9013197F1F7AA988A
:10094000A9985ABB8CE08BBB842F8A95F1F7A89AA3
:10095000892F8A95F1F7A898F9013197F1F7AA98AC
:10096000A9985ABB88E38BBB842F8A95F1F7A89A84
:10097000892F8A95F1F7A898F9013197F1F7AA988C
:10098000A9985ABB81E08BBB4A95F1F7A89A9A9532
:10099000F1F7A898C9010197F1F70895AA98A998C5
:1009A0008FEF8ABB81E08BBB84E08A95F1F7A89A30
:1009B0008EE08A95F1F7A89880E090E90197F1F729
:1009C0000895CF93DF93EB0190E0029626E0880F25
:1009D000991F2A95E1F7AA98A9982FEF2ABB8BBBFC
:1009E00084E08A95F1F7A89A8EE08A95F1F7A898A5
:1009F00080E090E90197F1F703C021960E94660418
:100A000088818823D1F7DF91CF910895CF93DF9329
:100A1000EC0103C021960E94660488818823D1F7E7
:100A2000DF91CF9108958091C7029091C8020197FC
:100A30009093C8028093C702019681F481E090E010
:100A40009093C8028093C70280E061EF72E00E9439
:100A5000E10481E069EC72E00E94E1040895809174
:100A6000930108958091950108958CE080939500FD
:100A700010929501089586E08093950081E080931F
:100A80009501089586E08093950082E0809395011A
:100A9000089586E08093950083E080939501089502
:100AA00086E08093950084E08093950108951F93DC
:100AB000182F9A01AB0160E070E18EE090E00E9497
:100AC0006613215030401BB888E18AB98CE08093CE
:100AD00095003093900029B980939500109295016C
:100AE000812F837080939301107810939401882351
:100AF00059F0129A813021F454981A9A579807C0E5
:100B0000823029F4549A1A98103809F4579A1F9190
:100B1000089580919301882339F01A9A549880E0BF
:100B200098E40197F1F757980895809193018823ED
:100B300089F05E9BFECF8CEC9CE10197F1F7549A13
:100B40001A9880E098E40197F1F780919401803839
:100B500009F4579A08955D9BFECF8CB980E090E030
:100B600008955F9BFECF8CB190E008952BB130E0EB
:100B700020783070C9010895982F8A3341F480930A
:100B8000590381E08093900110928F010EC08091F3
:100B90009001882351F080919001E82FF0E0E75A0E
:100BA000FC4F90838F5F80939001809159038A332B
:100BB000B1F4E0919001F0E0E95AFC4F80818D3072
:100BC00071F4E0919001F0E0E85AFC4F80818A30A6
:100BD00031F481E080938F0110929001089580910B
:100BE0009001803421F41092900110928F010895A9
:100BF000982F833241F48093590381E080939001D0
:100C000010928F010EC080919001882351F0809145
:100C10009001E82FF0E0E75AFC4F90838F5F8093BC
:100C2000900180915903833271F4E0919001F0E0DA
:100C3000E85AFC4F80818D3031F481E080938F0140
:100C400010929001089580919001803421F41092C7
:100C5000900110928F010895982F863041F480936F
:100C600059031092900181E080938F011AC08B315B
:100C700011F0853141F49093590381E08093900104
:100C800010928F010EC080919001882351F08091C5
:100C90009001E82FF0E0E75AFC4F90838F5F80933C
:100CA0009001809159038B3141F4E0919001F0E083
:100CB000E85AFC4F8081843041F08091590385319E
:100CC00051F480919001843031F481E080938F0160
:100CD00010929001089580919001803421F4109237
:100CE000900110928F01089580919601089580914E
:100CF000980108958CE080939D00109298010895CA
:100D000086E080939D0081E080939801089586E0BD
:100D100080939D0082E080939801089586E08093FF
:100D20009D0083E080939801089586E080939D0064
:100D300084E08093980108951F93182F9A01AB01C6
:100D400060E070E18EE090E00E9466132150304038
:100D500010929B0088E180939A008CE080939D0024
:100D6000309398002093990080939D0010929801F1
:100D7000812F8370809396011078109397018823B8
:100D8000A9F0129A813051F480919A008F7E80935D
:100D90009A001A9A80919A008F770DC0823069F478
:100DA00080919A00806180939A001A98103829F4F3
:100DB00080919A00806880939A001F910895809195
:100DC0009601882379F01A9A80919A008F7E8093F9
:100DD0009A0080E098E40197F1F780919A008F776C
:100DE00080939A000895809196018823D9F080918C
:100DF0009B0086FFFCCF8CEC9CE10197F1F7809182
:100E00009A00806180939A001A9880E098E4019794
:100E1000F1F780919701803829F480919A008068D9
:100E200080939A000895982F80919B0085FFFCCFB6
:100E300090939C0080E090E0089580919B0087FF54
:100E4000FCCF80919C0090E0089520919B0030E0C1
:100E500020783070C9010895982F8A3341F4809327
:100E6000190381E080939201109291010EC080914C
:100E70009201882351F080919201E82FF0E0E75E23
:100E8000FC4F90838F5F80939201809119038A3386
:100E9000B1F4E0919201F0E0E95EFC4F80818D3089
:100EA00071F4E0919201F0E0E85EFC4F80818A30BD
:100EB00031F481E080939101109292010895809124
:100EC0009201803421F410929201109291010895C0
:100ED000982F833241F48093190381E0809392012B
:100EE000109291010EC080919201882351F080915F
:100EF0009201E82FF0E0E75EFC4F90838F5F8093D4
:100F0000920180911903833271F4E0919201F0E033
:100F1000E85EFC4F80818D3031F481E08093910157
:100F200010929201089580919201803421F41092E0
:100F30009201109291010895982F863041F4809388
:100F400019031092920181E0809391011AC08B31B4
:100F500011F0853141F49093190381E0809392015F
:100F6000109291010EC080919201882351F08091DE
:100F70009201E82FF0E0E75EFC4F90838F5F809353
:100F80009201809119038B3141F4E0919201F0E0DC
:100F9000E85EFC4F8081843041F0809119038531F7
:100FA00051F480919201843031F481E08093910179
:100FB00010929201089580919201803421F4109250
:100FC0009201109291010895982F8E3789F48091A3
:100FD0009201882369F41092910180919201E82F87
:100FE000F0E0E75EFC4F90838F5F8093920114C026
:100FF00080919201882381F080919201843060F485
:1010000080919201E82FF0E0E75EFC4F90838F5FC4
:101010008093920110929101809119038E3751F4BF
:1010200080919201843031F41092920181E080939A
:101030009101089580919201803469F429E133E0AF
:10104000C90160E070E040E450E00E946E0F109231
:101050009201109291010895982F8E3371F08A3089
:1010600061F080919201E82FF0E0E75EFC4F908301
:101070008F5F8093920110929101E0919201F0E0D4
:1010800029E133E0E85EFC4F80818D30A1F481E0FE
:101090008093910180919201803450F4809192016B
:1010A000E82FF0E0E20FF31F10828F5F8093920130
:1010B00010929201089580919201803459F4C901EF
:1010C00060E070E040E450E00E946E0F10929201E8
:1010D0001092910108951F920F920FB60F920BB6C6
:1010E0000F9211242F933F934F935F936F937F93AE
:1010F0008F939F93AF93BF93EF93FF9380919C0047
:1011000090919801923091F0933028F4992341F016
:101110009130A1F408C0933061F0943079F40CC0A0
:101120000E942C070BC00E94680708C00E942C0870
:1011300005C00E94E40702C00E949C07FF91EF9146
:10114000BF91AF919F918F917F916F915F914F91DF
:101150003F912F910F900BBE0F900FBE0F901F90DD
:101160001895982F8E3789F480919001882369F41F
:1011700010928F0180919001E82FF0E0E75AFC4F28
:1011800090838F5F8093900114C080919001882399
:1011900081F080919001843060F480919001E82F7B
:1011A000F0E0E75AFC4F90838F5F8093900110929C
:1011B0008F01809159038E3751F4809190018430D2
:1011C00031F41092900181E080938F010895809115
:1011D0009001803469F429E533E0C90160E070E0F2
:1011E00040E450E00E946E0F1092900110928F0127
:1011F0000895982F8E3371F08A3061F080919001BC
:10120000E82FF0E0E75AFC4F90838F5F80939001C6
:1012100010928F01E0919001F0E029E533E0E85A67
:10122000FC4F80818D30A1F481E080938F0180910B
:101230009001803450F480919001E82FF0E0E20FAB
:10124000F31F10828F5F8093900110929001089598
:1012500080919001803459F4C90160E070E040E46D
:1012600050E00E946E0F1092900110928F0108952D
:101270001F920F920FB60F920BB60F9211242F935D
:101280003F934F935F936F937F938F939F93AF930E
:10129000BF93EF93FF938CB190919501923091F0B1
:1012A000933028F4992341F09130A1F408C0933091
:1012B00061F0943079F40CC00E94BC050BC00E9410
:1012C000F80508C00E94F90805C00E94B10802C0D4
:1012D0000E942C06FF91EF91BF91AF919F918F914A
:1012E0007F916F915F914F913F912F910F900BBE26
:1012F0000F900FBE0F901F901895EF92FF920F93D3
:101300001F93CF93DF93DC01EB01F42EE52E8901CF
:1013100040919601423079F41A9A80919A008F7E1A
:1013200080939A0080E098E40197F1F780919A0009
:101330008F7780939A00809198018823A9F490E098
:1013400007C080919B0085FFFCCFE0939C009F5FCE
:10135000FD01E90FF11DE081EA3099F780919B00D2
:1013600085FFFCCF8AE066C08130A9F490E007C019
:1013700080919B0085FFFCCFE0939C009F5FFD0167
:10138000E90FF11DE081ED3099F780919B0085FF19
:10139000FCCF8DE04FC0833091F420E030E0FD01C0
:1013A000E20FF31FE08180919B0085FFFCCFE0936B
:1013B0009C002F5F3F4F2430310589F73DC08430BA
:1013C000D9F58C91833031F480919B0085FFFCCF5F
:1013D00083E030C0863031F480919B0085FFFCCFE4
:1013E00086E028C0853111F090E019C020E030E09F
:1013F000FD01E20FF31FE08180919B0085FFFCCF90
:10140000E0939C002F5F3F4F2430310589F714C0D3
:1014100080919B0085FFFCCFE0939C009F5FFD01C6
:10142000E90FF11DE081E43099F780919B0085FF81
:10143000FCCF84E080939C00209731F4423011F47B
:101440000E94F30610E048C00E94F306C8010E9403
:10145000AD0B082F25C080919A008F7780939A005A
:10146000809191018823B9F0109291018F2D9E2DCA
:101470009C01F9012134310510F0E0E4F0E029E1AC
:1014800033E0CE01B901AF010E94650F802F0E94A9
:10149000EA0B10E00BC080919A00806880939A005C
:1014A000802F0E949A0B892BB1F617E0802F0E94A3
:1014B000EA0B80919601813079F41A9A80919A0012
:1014C0008F7E80939A0080E098E40197F1F78091F5
:1014D0009A008F7780939A00812FDF91CF911F918F
:1014E0000F91FF90EF900895EF92FF920F931F934B
:1014F000CF93DF93DC01EB01F42EE52E89012091DF
:101500009301223039F41A9A549880E098E40197B4
:10151000F1F7579880919501882379F404C05D9B79
:10152000FECFECB98F5FFD01E80FF11DE081EA30DD
:10153000B1F75D9BFECF8AE02EC0843069F58C91B7
:10154000833021F45D9BFECF83E025C0863021F4FB
:101550005D9BFECF86E01FC0853111F080E012C098
:1015600080E090E0FD01E80FF91FE0815D9BFECF78
:10157000ECB9019684309105A9F70EC05D9BFECFB2
:10158000ECB98F5FFD01E80FF11DE081E430B1F7A8
:101590005D9BFECF84E08CB9209731F4223011F4AA
:1015A0000E94950510E038C00E949505C8010E9470
:1015B000AD0B082F1DC0579880918F018823B9F07B
:1015C00010928F018F2D9E2D9C01F9012134310540
:1015D00010F0E0E4F0E029E533E0CE01B901AF011D
:1015E0000E94650F802F0E94EA0B10E007C0579AF7
:1015F000802F0E949A0B892BF1F617E0802F0E9412
:10160000EA0B80919301813039F41A9A549880E062
:1016100098E40197F1F75798812FDF91CF911F91AF
:101620000F91FF90EF900895BF9A0895AF92BF92E7
:10163000CF92DF92EF92FF920F931F93C79AA0E091
:10164000B0E0BC01CD010E944D125B016C0126E6A9
:1016500036E646E655E40E94DB127B018C0120E071
:1016600030E040E85FE30E941D1288231CF461E033
:1016700070E024C0C801B70120E03FEF4FE757E416
:101680000E94D7121816B4F4C601B50120E030E06C
:1016900040E251E40E94DB120E94211280E791E0B7
:1016A00005C0FC013197F1F761507040611571057B
:1016B000C1F707C0C801B7010E942112CB010197F1
:1016C000F1F7C7981F910F91FF90EF90DF90CF90A7
:1016D000BF90AF9008959C014FB7F894C79A80913E
:1016E0009B0390919C038217930738F080919B0392
:1016F00090919C038F5F9F4F21F430939C03209324
:101700009B034FBF089580E090E02FEF3FEFFC0177
:10171000EE0FFF1FE756FC4F318320830196803286
:101720009105A9F787B7826087BF83E781BF8DE006
:1017300083BF08959FB7F894803218F0E0E0F0E09E
:1017400009C0E82FF0E0EE0FFF1FE756FC4F0190B5
:10175000F081E02D9FBFCF0108959C015FB7F89401
:10176000A2E0B0E04A2FFD01EE0FFF1FE756FC4F4D
:10177000808191818F5F9F4F71F48FEF2F3F3807EA
:1017800011F42EEF3FEFAA0FBB1FA756BC4F1196C7
:101790003C932E9305C04F5F1196A032B10511F70F
:1017A0005FBF842F08952FB7F8943FEF8F3F9307C3
:1017B00011F48EEF9FEF90939A03809399032FBFBC
:1017C0002FB7F8948091990390919A032FBF892B9A
:1017D000B9F70895E82F2FB7F89482508E3148F466
:1017E000F0E0EE0FFF1FE756FC4F8FEF9FEF918366
:1017F00080832FBF089583B7887F83BF089583B701
:10180000856083BF08951F920F920FB60F920BB69B
:101810000F9211242F933F934F935F936F937F9376
:101820008F939F93AF93BF93EF93FF9320E030E0AC
:10183000F901EE0FFF1FE756FC4F80819181892B44
:1018400051F0808191818F5F9F4F29F0808191813C
:101850000197918380832F5F3F4F2032310541F7FD
:1018600080919B0390919C03019709F4C7980E9473
:101870006D0380918C0190918D01019790938D0162
:1018800080938C010196C9F48091990190919A01FD
:10189000A0919B01B0919C010196A11DB11D809367
:1018A000990190939A01A0939B01B0939C018AEEB9
:1018B00093E090938D0180938C0180919D01909194
:1018C0009E01A0919F01B091A0010196A11DB11DA3
:1018D00080939D0190939E01A0939F01B093A001DE
:1018E000FF91EF91BF91AF919F918F917F916F91F8
:1018F0005F914F913F912F910F900BBE0F900FBEB4
:101900000F901F90189520E030E0F901EB5EFB4F3F
:101910001082C901880F991FF90145E0EE0FFF1FE2
:101920004A95E1F7E81BF90BE752FC4F80E090E0A5
:101930001192119201968F309105D1F72F5F3F4F91
:101940002230310511F708958091A1018F5F8093B6
:10195000A101823011F41092A10108958091A1019A
:10196000882319F482E08093A1018091A101815024
:101970008093A10108958091A101282F30E0F90101
:10198000EB5EFB4F80818F5F80838F3009F4108284
:10199000D901AB5EBB4F8C91F90174E0EE0FFF1FD4
:1019A0007A95E1F7E21BF30BE80FF11DEE0FFF1F35
:1019B000E752FC4F80819181892B09F41C92089594
:1019C0008091A101A82FB0E0FD01EB5EFB4F80816B
:1019D000882311F48FE08083FD01EB5EFB4F408193
:1019E0009D0194E0220F331F9A95E1F72A1B3B0BD0
:1019F0004150F901E40FF11DEE0FFF1FE752FC4FBC
:101A000080819181892B31F4442391F7AB5EBB4FE8
:101A10001C920895AB5EBB4F4C9308958091A10139
:101A200008958091A101E5E1F4E0E80FF11D8081C6
:101A300008958091A10190E0FC01EB5EFB4F2081B5
:101A4000FC0134E0EE0FFF1F3A95E1F7E81BF90BBC
:101A5000E20FF11DEE0FFF1FE752FC4F0190F081E6
:101A6000E02D09950895FB018F708A3010F4805D98
:101A700001C0895C808380E00895FB01982F9295D6
:101A80009F709A3010F4905D01C0995C90838F70C4
:101A90008A3010F4805D01C0895C818380E0089504
:101AA000FF920F931F93F82E8B01892F0E943D0DFB
:101AB0000E5F1F4F8F2DB8010E943D0D80E01F91DA
:101AC0000F91FF900895982FFB018154863020F4E8
:101AD0009753908380E00895892F80538A3010F0C7
:101AE00082E00895808380E00895FC01DB0190810D
:101AF000892F8154863018F4292F275306C0292FA7
:101B000020532A3010F082E00895322F3295307F32
:101B10003C939181892F8154863010F4975306C0ED
:101B200090539A3018F0922F82E001C080E0390F74
:101B30003C930895CF92DF92EF92FF920F931F9301
:101B4000DF93CF930F92CDB7DEB77C018B016E018F
:101B50000894C11CD11CB6010E94750D382F882332
:101B600091F48981F80110828183C7010296B60140
:101B70000E94750D382F2981F80180819181820F93
:101B8000911D91838083832F0F90CF91DF911F91BF
:101B90000F91FF90EF90DF90CF9008956F927F921A
:101BA0008F929F92AF92BF92CF92DF92FF920F934C
:101BB0001F93DF93CF930F92CDB7DEB75C016B011C
:101BC0004A01FF2400E010E03E010894611C711CF2
:101BD0000CC0C501800F911FB3010E94750D8823B1
:101BE00069F40E5F1F4F8981F80E0C151D0588F3EF
:101BF0008F2D8195B4010E943D0D80E00F90CF9113
:101C0000DF911F910F91FF90DF90CF90BF90AF9029
:101C10009F908F907F906F900895CF92DF92FF9268
:101C20000F931F93CF93DF938C016B01DC015C96C4
:101C30008C915C97813039F411968C91833019F432
:101C40008BE390E002C081E190E04817590710F45F
:101C500094E066C0F6018AE38193D8018C91BF01BC
:101C60000E943D0DB6016D5F7F4FF80181810E949A
:101C70003D0DE6012596D8015C968C915C978130EC
:101C800071F411968C911197833049F412968C91CE
:101C9000880FBE010E943D0DE601279607C0F8019E
:101CA00082819381BE010E94500D2496D801149622
:101CB0008D919C911597BE010E94500D2496F801BC
:101CC000848D8130E1F481818330C9F4FF24F39461
:101CD0000CC03296EE0FFF1FE00FF11F8081918143
:101CE000BE010E94500D2496F394EF2DF0E0D80130
:101CF00012968D919C911397E817F90750F3B6014E
:101D0000609570956C0F7D1FC6010196AE010E9413
:101D1000CE0D982F882321F48DE08A838AE08B836F
:101D2000892FDF91CF911F910F91FF90DF90CF907E
:101D30000895AF92BF92CF92DF92EF92FF920F93EE
:101D40001F93DF93CF9300D00F92CDB7DEB76C0116
:101D50008B018DE1FB0111928A95E9F7F60160E0B4
:101D600070E080818D30B9F481818A30A1F442E045
:101D7000A42EB12CA60EB71E76010894E11CF11C0E
:101D800063507040C701AE014E5F5F4F0E94CE0DA1
:101D9000882349F08CC06F5F7F4F31966B3371059C
:101DA00001F785E084C0F601EA0DFB1D34979A81A6
:101DB00080813496981709F077C033979B81808192
:101DC000981709F071C0C701B8010E94750D8823EA
:101DD00009F06DC033E0E32EF12CEC0CFD1CB801D2
:101DE0006F5F7F4FC7010E94750D882309F05FC0A8
:101DF000F8018181833009F044C0F1E1AF16B104EC
:101E000009F43FC081E0F801848F25E0E22EF12C37
:101E1000EC0CFD1CC701BE016F5F7F4F0E94750D6A
:101E2000D82E882309F042C0898186958C3018F01D
:101E30008CE090E001C090E0F8019383828382E01F
:101E400090E0E80EF91E198212C06E5F7F4F660F98
:101E5000771F600F711FC7010E949A0D882339F503
:101E600089818F5F8983E4E0F0E0EE0EFF1E8981B7
:101E7000682F70E0F801828193816817790728F351
:101E800015C0F801148EB8016E5F7F4FC70102962E
:101E90000E949A0D882359F40C5F1F4FC7010696C4
:101EA000B8010E949A0D03C083E001C08D2D0F90F0
:101EB0000F900F90CF91DF911F910F91FF90EF90B6
:101EC000DF90CF90BF90AF900895FB01DC0102C07E
:101ED00001900D9241505040D8F70895DC0101C0A7
:101EE0006D9341505040E0F70895FB01DC010190F3
:101EF0000D920020E1F70895AEE0B0E0E2E8FFE0E7
:101F00000C9496130D891E8986E08C831A830983AD
:101F10008FEF9FE79E838D839E01275E3F4FCE010B
:101F200001966F89788DA9010E94A00F2F813885B5
:101F3000020F131FF80110822E96E4E00C94B213E6
:101F4000ABE0B0E0E6EAFFE00C9488133C012B0123
:101F50005A01FC0117821682838181FD03C06FEF55
:101F60007FEFC6C19AE0892E1E010894211C311C06
:101F7000F3012381F20123FD859123FF81912F013C
:101F8000882309F4B2C1853239F423FD859123FFFA
:101F900081912F01853229F490E0B3010E949311C1
:101FA000E7CF982FFF24EE249924FFE1FF15D0F00E
:101FB0009B3269F09C3228F4903259F0933291F4BC
:101FC0000EC09D3249F0903369F441E024C052E0E4
:101FD000F52A84E0F82A28C098E0F92A25C0E0E133
:101FE000FE2A22C0F7FC29C0892F80538A3070F462
:101FF000F6FE05C0989C902C1124980E15C0E89C04
:10200000E02C1124E80EF0E2FF2A0EC09E3229F4E3
:10201000F6FC6BC140E4F42A07C09C3619F450E882
:10202000F52A02C0983649F4F20123FD959123FF69
:1020300091912F01992309F0B8CF892F85548330CE
:1020400018F08052833038F444E050E0A40EB51EFE
:102050005FE359830FC0933631F0933779F09335AE
:1020600009F056C020C0F5018081898342E050E02C
:10207000A40EB51E610101E010E012C0F501C080A0
:10208000D180F6FC03C06FEF7FEF02C0692D70E0D6
:1020900042E050E0A40EB51EC6010E9488118C01DA
:1020A0005FE7F52214C0F501C080D180F6FC03C0C3
:1020B0006FEF7FEF02C0692D70E042E050E0A40EA8
:1020C000B51EC6010E947D118C0150E8F52AF3FE71
:1020D00007C01AC080E290E0B3010E949311EA9415
:1020E0008E2D90E008171907A8F30EC0F601F7FC33
:1020F0008591F7FE81916F0190E0B3010E949311E9
:10210000E110EA94015010400115110579F7EAC079
:10211000943611F0993669F5F7FE08C0F501208173
:1021200031814281538184E090E00AC0F5018081D1
:1021300091819C01442737FD4095542F82E090E027
:10214000A80EB91E9FE6F92257FF09C05095409589
:10215000309521953F4F4F4F5F4FE0E8FE2ACA016F
:10216000B901A1012AE030E00E94BF11D82ED21897
:1021700040C0953729F41F2D1F7E2AE030E01DC096
:102180001F2D197F9F3661F0903720F4983509F0A4
:10219000ACC00FC0903739F0983709F0A6C004C022
:1021A00028E030E00AC0106114FD146020E130E046
:1021B00004C014FD166020E132E017FF08C0F501ED
:1021C000608171818281938144E050E008C0F50113
:1021D00080819181BC0180E090E042E050E0A40E5B
:1021E000B51EA1010E94BF11D82ED2188FE7F82E7C
:1021F000F122F6FE0BC05EEFF522D91438F4F4FE9E
:1022000007C0F2FC05C08FEEF82202C01D2D01C0F0
:10221000192DF4FE0DC0FE01ED0DF11D80818033FE
:1022200019F499EEF92208C01F5FF2FE05C003C041
:102230008F2D867809F01F5F0F2DF3FC14C0F0FE80
:102240000FC01E1510F09D2C0BC09D2C9E0C911ADA
:102250001E2D06C080E290E0B3010E9493111F5F23
:102260001E15C0F304C01E1510F4E11A01C0EE24BF
:1022700004FF0FC080E390E0B3010E94931102FFBE
:102280001DC001FD03C088E790E00EC088E590E026
:102290000BC0802F867891F001FF02C08BE201C055
:1022A00080E2F7FC8DE290E0B3010E94931106C03A
:1022B00080E390E0B3010E9493119A94D914C0F383
:1022C000DA94F101ED0DF11D808190E0B3010E94DF
:1022D0009311DD20A9F706C080E290E0B3010E94CF
:1022E0009311EA94EE20C1F743CEF3016681778122
:1022F000CB012B96E2E10C94A413FC0105906150F4
:1023000070400110D8F7809590958E0F9F1F08950B
:10231000FC016150704001900110D8F780959095B4
:102320008E0F9F1F08950F931F93CF93DF938C0100
:10233000EB018B8181FF1BC082FF0DC02E813F818D
:102340008C819D812817390764F4E881F981019314
:10235000F983E88306C0E885F985802F0995892BE4
:1023600031F48E819F8101969F838E8302C00FEF8F
:102370001FEFC801DF91CF911F910F910895FA01CE
:10238000AA27283051F1203181F1E8946F936E7FB4
:102390006E5F7F4F8F4F9F4FAF4FB1E03ED0B4E0A5
:1023A0003CD0670F781F891F9A1FA11D680F791FE6
:1023B0008A1F911DA11D6A0F711D811D911DA11DF7
:1023C00020D009F468943F912AE0269F1124301907
:1023D000305D3193DEF6CF010895462F4770405DA2
:1023E0004193B3E00FD0C9F7F6CF462F4F70405D51
:1023F0004A3318F0495D31FD4052419302D0A9F7AC
:10240000EACFB4E0A6959795879577956795BA95A5
:10241000C9F700976105710508959B01AC010A2E6B
:1024200006945795479537952795BA95C9F7620F42
:10243000731F841F951FA01D08956CD008F481E0C0
:10244000089594D088F09F5790F0B92F9927B751ED
:10245000A0F0D1F0660F771F881F991F1AF0BA9568
:10246000C9F712C0B13081F09BD0B1E0089598C097
:10247000672F782F8827B85F39F0B93FCCF386955E
:1024800077956795B395D9F73EF4909580957095BB
:1024900061957F4F8F4F9F4F0895E89409C097FB38
:1024A0003EF490958095709561957F4F8F4F9F4F2B
:1024B0009923A9F0F92F96E9BB279395F69587956F
:1024C00077956795B795F111F8CFFAF4BB0F11F432
:1024D00060FF1BC06F5F7F4F8F4F9F4F16C08823D9
:1024E00011F096E911C0772321F09EE8872F762F0F
:1024F00005C0662371F096E8862F70E060E02AF050
:102500009A95660F771F881FDAF7880F969587953B
:1025100097F90895990F0008550FAA0BE0E8FEEF10
:1025200016161706E807F907C0F012161306E40797
:10253000F50798F0621B730B840B950B39F40A2690
:1025400061F0232B242B252B21F408950A2609F46E
:10255000A140A6958FEF811D811D089557FD9058CC
:10256000440F551F59F05F3F71F04795880F97FB57
:10257000991F61F09F3F79F0879508951216130611
:102580001406551FF2CF4695F1DF08C01616170640
:102590001806991FF1CF8695710561050894089575
:1025A000E894BB2766277727CB0197F90895B2DF18
:1025B00008F48FEF08950BD078C069D028F06ED062
:1025C00018F0952309F05AC05FC01124EACFC6DF86
:1025D000A0F3959FD1F3950F50E0551F629FF00136
:1025E000729FBB27F00DB11D639FAA27F00DB11D8F
:1025F000AA1F649F6627B00DA11D661F829F222718
:10260000B00DA11D621F739FB00DA11D621F839F9E
:10261000A00D611D221F749F3327A00D611D231F74
:10262000849F600D211D822F762F6A2F11249F57C2
:1026300050408AF0E1F088234AF0EE0FFF1FBB1FE5
:10264000661F771F881F91505040A9F79E3F510584
:1026500070F014C0A6CF5F3FECF3983EDCF3869594
:1026600077956795B795F795E7959F5FC1F7FE2B2F
:10267000880F911D9695879597F9089597F99F670B
:1026800080E870E060E008959FEF80EC08950024FA
:102690000A941616170618060906089500240A94C7
:1026A00012161306140605060895092E0394000C4D
:1026B00011F4882352F0BB0F40F4BF2B11F460FFDC
:1026C00004C06F5F7F4F8F4F9F4F0895A1E21A2E76
:1026D000AA1BBB1BFD010DC0AA1FBB1FEE1FFF1FC6
:1026E000A217B307E407F50720F0A21BB30BE40B16
:1026F000F50B661F771F881F991F1A9469F760955D
:102700007095809590959B01AC01BD01CF01089516
:102710002F923F924F925F926F927F928F929F92F1
:10272000AF92BF92CF92DF92EF92FF920F931F93DF
:10273000CF93DF93CDB7DEB7CA1BDB0B0FB6F89490
:10274000DEBF0FBECDBF09942A88398848885F84D0
:102750006E847D848C849B84AA84B984C884DF8041
:10276000EE80FD800C811B81AA81B981CE0FD11D25
:102770000FB6F894DEBF0FBECDBFED010895F894FB
:02278000FFCF89
:10278200FFFF3200050041434B00C2C5D0D1C8DF74
:1027920020CFCE3A20202020202000252D31367354
:1027A20000323031303036323500CEC0CE20CDCF7F
:1027B200CF20D1C8D1D2C5CCC020002020202020DB
:1027C200CBCCCFD22D3120202020200041A042A10D
:1027D200E045A3A4A5A64BA74D484FA8504354A932
:1027E200AA58E1ABACE2ADAE62AFB0B161B2B3B484
:1027F200E365B6B7B8B9BABBBCBD6FBE7063BF798B
:0E280200E478E5C0C1E6C2C3C4C5C6C7EA0398
:00000001FF
