:100000000C9446000C9466000C9466000C946600F8
:100010000C9466000C9466000C9466000C946600C8
:100020000C9466000C9466000C9466000C946600B8
:100030000C9466000C9466000C9466000C944911B4
:100040000C9466000C9466000C947E0E0C94660072
:100050000C9466000C9466000C9466000C94660088
:100060000C9466000C9466000C9466000C94660078
:100070000C9466000C9466000C94B10D0C94660010
:100080000C9466000C9466000C94660011241FBE4C
:10009000CFEFD0E1DEBFCDBF12E0A0E0B1E0E4E2FF
:1000A000F2E300E00BBF02C007900D92AC3FB10736
:1000B000D9F71BBE15E0ACEFB2E001C01D92A83C21
:1000C000B107E1F70E9433050C9410190C9400005D
:1000D00081E0809315031092160312B80895EF92F1
:1000E000FF920F931F93CF93DF9381B182958F700F
:1000F00050910101A091000100E010E0C82FD0E074
:1001000081E0E82EF12C402F2A2F30E0002E02C093
:10011000359527950A94E2F721703070B22F22238B
:1001200099F0852F90E0002E02C0959587950A944E
:10013000E2F780FF09C0CE01002E02C09595879599
:100140000A94E2F780FF4AC021153105C9F5852FD1
:1001500090E0042E02C0959587950A94E2F7FC0181
:10016000E170F07080FF19C0CE01042E02C0959599
:1001700087950A94E2F7BC016170707080FD09C038
:10018000C70102C0880F991F4A95E2F7809558234E
:100190004AC0EE2311F0662359F4EF2B89F4CE0107
:1001A000042E02C0959587950A94E2F780FF08C057
:1001B000C70102C0880F991F4A95E2F7A82B33C0E8
:1001C000BB23A9F0852F90E08C2B9D2B042E02C021
:1001D000959587950A94E2F780FD09C0C70102C092
:1001E000880F991F4A95E2F78095A8231CC0232BFE
:1001F000D1F0852F90E0042E02C0959587950A9442
:10020000E2F780FD10C0CE01042E02C095958795BF
:100210000A94E2F780FF07C0C70102C0880F991F48
:100220004A95E2F7582B0F5F1F4F0830110509F070
:100230006ACF50930101A093000180911503952F7F
:100240009095982380958523982B90931603DF91A2
:10025000CF911F910F91FF90EF9008950E946F0032
:10026000089520E030E0682F70E042E6CB01022ED6
:1002700002C0959587950A94E2F780FF02C0C19A63
:1002800001C0C198842F8A95F1F7C29A842F8A956C
:10029000F1F7C298C198842F8A95F1F72F5F3F4FED
:1002A0002830310519F70895809117030E94310114
:1002B000C49A82E68A95F1F7C4980895909117033D
:1002C00080911803891721F0909318030E9454011C
:1002D0000895B99ABA9ABC9AC198C298C4981092D3
:1002E00017038FEF809318030895109239038FEF4F
:1002F0008093420380933D0310923A03809343031B
:1003000080933E0310923B038093440380933F030A
:1003100010923C038093450380934003E9E1F3E0AE
:100320001192119283E0E933F807D1F7109261003E
:10033000A49AA59AA69AA79A0895882311F4AC982E
:1003400005C0AC9A813011F4AD9805C0AD9A8230E9
:1003500011F4AE9805C0AE9A833011F4AF980895A9
:10036000AF9A08951092390310923A0310923B030A
:1003700010923C03089540B190E083709070049611
:1003800021E030E002C0220F331F8A95E2F7842F6C
:1003900082230895CF92DF92EF92FF920F931F93E3
:1003A000DF93CF93CDB7DEB72A970FB6F894DEBFB1
:1003B0000FBECDBFE82F7E010894E11CF11C870120
:1003C0009E01255F3F4F80B1D8018D938D01A2170B
:1003D000B307C9F7F0E0DF01AE5BBC4F8C91E35C83
:1003E000FC4F808364E070E081E0C82ED12C1CC0FB
:1003F000808190E082239323892B09F04F5F31960F
:10040000E017F107A9F7483018F08C91822B06C04D
:10041000433028F49C91822F809589238C936F5FC1
:100420007F4F6830710551F09601062E02C0220FF1
:10043000331F0A94E2F7F70140E0DACF2A960FB6AD
:10044000F894DEBF0FBECDBFCF91DF911F910F910A
:10045000FF90EF90DF90CF900895CF93DF93982F88
:1004600096959695692F70E0FB01EE5BFC4F20811D
:10047000A82FB0E0AD01437050704C5F5F4F30E08B
:10048000042E02C0359527950A94E2F720FF21C07B
:10049000FB01E35CFC4F808190E0042E02C0959547
:1004A00087950A94E2F780FD14C0FB01E75CFC4FDE
:1004B000208181E090E002C0880F991F4A95E2F701
:1004C000282B2083AA0FBB1FA75EBC4F1D921C9236
:1004D0005CC0FB01EE5BFC4F808190E0042E02C00B
:1004E000959587950A94E2F780FD0DC0FB01E35CCA
:1004F000FC4F808190E0042E02C0959587950A9468
:10050000E2F780FD42C0FB01EE5BFC4F808190E092
:10051000042E02C0959587950A94E2F780FD35C0B8
:10052000FB01E35CFC4F808190E0042E02C09595B6
:1005300087950A94E2F780FD28C0AA0FBB1FA75E2B
:10054000BC4F2D913C9111972F5F3F4F11963C93DB
:100550002E93C0910201D0910301809104019091EA
:1005600005018C0F9D1F8217930778F4FB01E75C50
:10057000FC4F208181E090E002C0880F991F4A95CE
:10058000E2F7282B2083CD93DC93DF91CF91089560
:100590000F931F9310E008E1812F0E949D01802F8F
:1005A0008A95F1F7812F0E94CA011F5F1430A1F7CD
:1005B00010E0812F0E942D021F5F1031D1F71F9193
:1005C0000F910895809141038150809341038F5F83
:1005D00029F48AE0809341030E94C8020895909113
:1005E000FD028091FF02891741F09093FF028091F4
:1005F0001703807C892B809317030895CF93DF9393
:10060000EC0103C021960E94F10A88818823D1F76A
:10061000DF91CF910895CF93DF93DC01FB018081BF
:10062000863031F4CD0166E071E00E94C61428C026
:10063000853119F080E090E01BC0818113968C9386
:100640001397828114968C931497838115968C93BB
:1006500015978EE48C9381E411968C9311978BE41B
:1006600012968C93129716961C920AC028830196B4
:1006700021813196ED01C80FD91F2430B9F71882B6
:10068000DF91CF910895CF92DF92EF92FF920F9377
:100690001F93DF93CF93CDB7DEB7C659D0400FB6C7
:1006A000F894DEBF0FBECDBF198280913A0385FF5B
:1006B0002EC080913A038F7D80933A038BE189832A
:1006C00086E48A8391E39B8380E38C838D839E837E
:1006D0008F8384E08887198689E090E09093E70310
:1006E0008093E60300D000D000D0EDB7FEB731967E
:1006F00084E694E0ADB7BEB712969C938E931197A3
:100700008AE091E09383828385E090E0CDC0809180
:100710003A0387FF2EC080913A038F7780933A0384
:100720008BE1898386E48A8381E38B838C8380E3F6
:100730008D838E838F8384E08887198689E090E09B
:100740009093E7038093E60300D000D000D0EDB78C
:10075000FEB7319684E694E0ADB7BEB712969C938F
:100760008E9311978AE091E09383828387E090E0F3
:100770009BC080913A0386FF2BC080913A038F7B08
:1007800080933A038BE1898386E48A8381E38B83B8
:100790008FE38C8384E08D831E8226E030E03093EB
:1007A000E7032093E60300D000D000D0EDB7FEB7FA
:1007B000319684E694E0ADB7BEB712969C938E93C3
:1007C00011978AE091E093838283358324836EC0FE
:1007D0008091390386FF29C0809139038F7B8093F4
:1007E00039038BE1898381E48A838FE38B8384E0FF
:1007F0008C831D8285E090E09093E7038093E6036D
:1008000000D000D000D0EDB7FEB7319684E694E07A
:10081000ADB7BEB712969C938E9311978AE091E084
:100820009383828382E090E03FC08091390385FF0B
:100830001CC0809139038F7D8093390310923C0452
:1008400000D000D000D0EDB7FEB7319684E694E03A
:10085000ADB7BEB712969C938E9311978AE091E044
:100860009383828381E090E01FC08091390387FFEA
:1008700027C0809139038F778093390310923C040D
:1008800000D000D000D0EDB7FEB7319684E694E0FA
:10089000ADB7BEB712969C938E9311978AE091E004
:1008A0009383828383E090E0958384830E94CD14B8
:1008B000EDB7FEB736960FB6F894FEBF0FBEEDBF8C
:1008C0008981882309F465C093E3C92ED12CCC0E0D
:1008D000DD1EC6018E010F5F1F4FB8010E940B0382
:1008E000C60166E171E00E94BB14C801B80142E391
:1008F00050E024EF31E00E94C30E282F80931B04A8
:1009000085E6E82EF12CEC0EFD1E2223E9F000D046
:1009100000D000D0EDB7FEB73196ADB7BEB7129696
:10092000FC92EE92119788E191E093838283248375
:1009300015820E94CD14EDB7FEB736960FB6F89427
:10094000FEBF0FBEEDBF04C0C701B8010E940B037C
:10095000C601B7010E94BB1400D000D08CE394E024
:10096000ADB7BEB712969C938E9311978E010D5C16
:100970001F4F14961C930E9313970E94CD140F9043
:100980000F900F900F90C8010E94FE028AE00E9413
:10099000F10ACA56DF4F0FB6F894DEBF0FBECDBFC7
:1009A000CF91DF911F910F91FF90EF90DF90CF904B
:1009B0000895FC012481828193818230910541F068
:1009C0008330910549F0019769F42093FD020AC034
:1009D0008091FD02822B04C020958091FD0282232C
:1009E0008093FD02108283E0818381E0848F81E027
:1009F00090E0938382839091FD0280E02091FE023B
:100A000030E0822B932B95838483CF0169E773E0D9
:100A10004BE350E00E94531380E090E90197F1F717
:100A200089E793E060E070E040E050E020E030E0F3
:100A30000E94BA0F089580910203882381F08CEC04
:100A400094E06DE174E00E94DF1380931B04109228
:100A50000203882321F48DE194E00E94D9040895D3
:100A60000E94E202089581E040E052EC61E070E013
:100A70000E949D0A80E840E855E260E070E00E9434
:100A8000E20B0E94DB0B0E94C9100E9475010E94BC
:100A900069010E9468000E945A10789488EE93E0E1
:100AA0000E945C1088E893E120E731E0F90131977A
:100AB000F1F70197D9F788EC90E00E945C1080ED87
:100AC00097E020E731E0F9013197F1F70197D9F785
:100AD00088EC90E00E945C1080ED97E020E731E028
:100AE000F9013197F1F70197D9F70E94CD0984E612
:100AF00094E06BE171E00E94C6140E94590A0E94C2
:100B00004303FBCF89E699E090934D0580934C0514
:100B10008AE598E090936B0580936A0584E198E0FC
:100B200090938905809388058FE397E090938B05D8
:100B300080938A058DEC97E090938D0580938C05CA
:100B400086E897E090938F0580938E058AE696E07D
:100B5000909391058093900581EB96E09093930597
:100B60008093920588EF96E0909395058093940585
:100B70008CE196E0909397058093960583EF95E03E
:100B80009093A7058093A60508958091390386FF69
:100B90000BC00E942612809139038F7B809339030A
:100BA00082E390E00E945C1080913A0386FF0BC0C4
:100BB0000E94011280913A038F7B80933A0382E373
:100BC00090E00E945C108091390385FF0BC00E9469
:100BD000EA11809139038F7D8093390382E390E09D
:100BE0000E945C10089584E694E061E271E00E9446
:100BF000C61400D000D000D0EDB7FEB731968CE31C
:100C000094E0ADB7BEB712969C938E93119782E392
:100C100091E09383828388E391E0958384830E94AB
:100C2000CD148DB79EB706960FB6F8949EBF0FBE33
:100C30008DBF0E94C505089584E694E061E471E0EB
:100C40000E94C61400D000D000D0EDB7FEB7319698
:100C50008CE394E0ADB7BEB712969C938E93119738
:100C600082E591E0938382838091FD02829586954F
:100C700086958370848315820E94CD1480913903F8
:100C80002DB73EB72A5F3F4F0FB6F8943EBF0FBE59
:100C90002DBF87FF1CC0809139038F778093390364
:100CA0009091FD02892F82958695869583708F5F3E
:100CB000843008F080E08295880F880F807C9F73D5
:100CC000892B8093FD0282E390E00E945C100E94D9
:100CD000C505089584E694E065E671E00E94C614B7
:100CE0008091FD0283FD03C026E731E002C02FE7BB
:100CF00031E000D000D000D0EDB7FEB731968CE3E4
:100D000094E0ADB7BEB712969C938E93119787E887
:100D100091E093838283358324830E94CD14809154
:100D200039032DB73EB72A5F3F4F0FB6F8943EBF49
:100D30000FBE2DBF87FF12C0809139038F7780933C
:100D400039038091FD0283FF02C0877F01C0886064
:100D50008093FD0282E390E00E945C100E94C50532
:100D6000089584E694E06AE971E00E94C6148091D7
:100D7000FD0284FD03C026E731E002C02FE731E029
:100D800000D000D000D0EDB7FEB731968CE394E0F0
:100D9000ADB7BEB712969C938E93119787E891E0FA
:100DA00093838283358324830E94CD1480913903F9
:100DB0002DB73EB72A5F3F4F0FB6F8943EBF0FBE28
:100DC0002DBF87FF12C0809139038F77809339033D
:100DD0008091FD0284FF02C08F7E01C080618093FC
:100DE000FD0282E390E00E945C100E94C505089518
:100DF00084E694E06BEA71E00E94C6148091FD02E3
:100E000085FD03C026E731E002C02FE731E000D0C6
:100E100000D000D0EDB7FEB731968CE394E0ADB7CB
:100E2000BEB712969C938E93119787E891E09383B7
:100E30008283358324830E94CD14809139032DB79A
:100E40003EB72A5F3F4F0FB6F8943EBF0FBE2DBF8F
:100E500087FF12C0809139038F7780933903809187
:100E6000FD0285FF02C08F7D01C080628093FD027C
:100E700082E390E00E945C100E94C505089584E61C
:100E800094E06CEB71E00E94C6148091FD0282FD3B
:100E900003C02DEC31E002C027ED31E000D000D0DE
:100EA00000D0EDB7FEB731968CE394E0ADB7BEB796
:100EB00012969C938E93119787E891E09383828397
:100EC000358324830E94CD14809139032DB73EB71A
:100ED0002A5F3F4F0FB6F8943EBF0FBE2DBF87FF6E
:100EE00012C0809139038F77809339038091FD027E
:100EF00082FF02C08B7F01C084608093FD0282E389
:100F000090E00E945C100E94C505089584E694E07C
:100F100060EE71E00E94C6148091FD0281FD03C065
:100F20002DEC31E002C027ED31E000D000D000D040
:100F3000EDB7FEB731968CE394E0ADB7BEB712962D
:100F40009C938E93119787E891E0938382833583F6
:100F500024830E94CD14809139032DB73EB72A5FB8
:100F60003F4F0FB6F8943EBF0FBE2DBF87FF12C094
:100F7000809139038F77809339038091FD0281FF3F
:100F800002C08D7F01C082608093FD0282E390E009
:100F90000E945C100E94C505089584E694E061EF0C
:100FA00071E00E94C6148091FD0280FD03C02DEC0B
:100FB00031E002C027ED31E000D000D000D0EDB725
:100FC000FEB731968CE394E0ADB7BEB712969C9312
:100FD0008E93119787E891E09383828335832483EE
:100FE0000E94CD14809139032DB73EB72A5F3F4F41
:100FF0000FB6F8943EBF0FBE2DBF87FF12C0809181
:1010000039038F77809339038091FD0280FF02C0FE
:101010008E7F01C081608093FD0282E390E00E9498
:101020005C100E94C505089584E694E062E072E0D9
:101030000E94C6148CE394E063E172E00E94C6143F
:101040002091FD02922F20FD02C08EE201C083ECB0
:1010500080933C0491FD02C08EE201C084EC809339
:101060003D0492FD02C08EE201C083E580933E0400
:1010700093FD02C08EE201C08FEC80933F0494FD8B
:1010800002C08EE201C081EC8093400495FD02C055
:101090008EE201C08BEC8093410480E28093420495
:1010A0002295269526952370205D209343040E9467
:1010B000C50508958091390387FF0FC080913903DA
:1010C0008F77809339038091B80291E089278093CC
:1010D000B80282E390E00E945C108091B8028823FD
:1010E00051F080910003882331F488EE93E00E9450
:1010F000F31080930003809100038823C9F00E94BD
:10110000E010892BA9F4809100030E943011109205
:1011100000038091B802882329F0809101038F5F3A
:101120008093010380910103833010F0109201033A
:101130008091B802882379F58091390386FF15C024
:10114000809139038F7B8093390382E390E00E9482
:101150005C1080910103882319F483E080930103DC
:101160008091010381508093010380913A0386FFAF
:1011700012C080913A038F7B80933A0382E390E020
:101180000E945C10809101038F5F80930103833084
:1011900010F01092010300D000D000D0ADB7BEB760
:1011A000119684E694E0EDB7FEB79283818384E2E2
:1011B00092E013969C938E9312978091010390E096
:1011C000FC01EE0FFF1FE80FF91FEE0FFF1FEA559E
:1011D000FD4F8081918115969C938E9314970E9468
:1011E000CD142091160380910103482F50E030E088
:1011F000CA018770907002C0359527958A95E2F7ED
:101200008DB79EB706960FB6F8949EBF0FBE8DBFE2
:10121000FA01EE0FFF1F20FF09C0E40FF51FEE0FCC
:10122000FF1FE855FD4F2081318108C0E40FF51FF5
:10123000EE0FFF1FEA55FD4F2481358100D000D00D
:1012400000D0EDB7FEB731968CE394E0ADB7BEB7F2
:1012500012969C938E93119784E292E093838283FB
:10126000358324830E94CD14EDB7FEB736960FB6B2
:10127000F894FEBF0FBEEDBF0E94C505089584E639
:1012800094E066E372E00E94C6148CE394E063E1AC
:1012900072E00E94C61440E050E08091160390E096
:1012A0009A012770307002C0959587952A95E2F7CC
:1012B00080FD02C08EE201C081E3FA01E45CFB4FD5
:1012C00080834F5F5F4F4330510539F70E94C5055A
:1012D000089584E694E067E472E00E94C6148CE30B
:1012E00094E068E572E00E94C6140E94C505089566
:1012F000883A11F482EA0895883B11F485EB089549
:10130000803C28F0E82FF0E0E750FE4F8081089500
:10131000AA98A9989FEF9ABB8BBB84E08A95F1F7B6
:10132000A89A8EE08A95F1F7A89880E090E9019755
:10133000F1F70895AA9AA9989FEF9ABB8BBB84E016
:101340008A95F1F7A89A8EE08A95F1F7A89886E633
:101350009EE00197F1F70895E82F883A11F4E2EA48
:101360000AC0883B11F4E5EB06C0803C20F0F0E0B9
:10137000E750FE4FE081AA9AA9988FEF8ABBEBBB9A
:1013800084E08A95F1F7A89A8EE08A95F1F7A898FB
:1013900086E69EE00197F1F7089584B3876084BBE9
:1013A000AA98A9985FEF5ABB86E08BBB44E0842FD4
:1013B0008A95F1F7A89A9EE0892F8A95F1F7A89867
:1013C00020E030E9F9013197F1F7AA98A9985ABBC2
:1013D0008CE08BBB842F8A95F1F7A89A892F8A9588
:1013E000F1F7A898F9013197F1F7AA98A9985ABB93
:1013F00088E38BBB842F8A95F1F7A89A892F8A9569
:10140000F1F7A898F9013197F1F7AA98A9985ABB72
:1014100081E08BBB4A95F1F7A89A9A95F1F7A898C5
:10142000C9010197F1F70895AA98A9988FEF8ABB8F
:1014300081E08BBB84E08A95F1F7A89A8EE08A95CB
:10144000F1F7A89880E090E90197F1F70895CF931C
:10145000DF93EB0190E0029626E0880F991F2A9512
:10146000E1F7AA98A9982FEF2ABB8BBB84E08A9555
:10147000F1F7A89A8EE08A95F1F7A89880E090E9B4
:101480000197F1F703C021960E94AC098881882357
:10149000D1F7DF91CF910895CF93DF93EC0103C093
:1014A00021960E94AC0988818823D1F7DF91CF91E2
:1014B000089580913A0490913B04019790933B04E6
:1014C00080933A04019681F481E090E090933B048C
:1014D00080933A0480E064E674E00E94270A81E089
:1014E0006CE374E00E94270A089580910603089532
:1014F0008091080308958CE0809395001092080372
:10150000089586E08093950081E080930803089514
:1015100086E08093950082E080930803089586E03A
:101520008093950083E080930803089586E080937C
:10153000950084E08093080308951F93182F9A0163
:10154000AB0160E070E18EE090E00E94B71821509E
:1015500030401BB888E18AB98CE0809395003093C5
:10156000900029B98093950010920803812F837011
:1015700080930603107810930703882359F0129A7A
:10158000813021F454981A9A579807C0823029F470
:10159000549A1A98103809F4579A1F910895809117
:1015A0000603882339F01A9A549880E098E401974A
:1015B000F1F75798089580910603882389F05E9B80
:1015C000FECF8CEC9CE10197F1F7549A1A9880E0D9
:1015D00098E40197F1F780910703803809F4579A4E
:1015E00008955D9BFECF8CB980E090E008955F9BED
:1015F000FECF8CB190E008952BB130E020783070B0
:10160000C9010895982F8A3341F48093CC0481E076
:1016100080930303109202030EC08091030388237A
:1016200051F080910303E82FF0E0E453FB4F9083E7
:101630008F5F809303038091CC048A33B1F4E091EF
:101640000303F0E0E653FB4F80818D3071F4E091AD
:101650000303F0E0E553FB4F80818A3031F481E0F1
:101660008093020310920303089580910303803452
:1016700021F410920303109202030895982F8332ED
:1016800041F48093CC0481E0809303031092020321
:101690000EC080910303882351F080910303E82F4B
:1016A000F0E0E453FB4F90838F5F809303038091BE
:1016B000CC04833271F4E0910303F0E0E553FB4F77
:1016C00080818D3031F481E0809302031092030316
:1016D000089580910303803421F410920303109243
:1016E00002030895982F863041F48093CC04109221
:1016F000030381E0809302031AC08B3111F085311E
:1017000041F49093CC0481E0809303031092020390
:101710000EC080910303882351F080910303E82FCA
:10172000F0E0E453FB4F90838F5F8093030380913D
:10173000CC048B3141F4E0910303F0E0E553FB4F1F
:101740008081843041F08091CC04853151F48091C6
:101750000303843031F481E0809302031092030389
:10176000089580910303803421F4109203031092B2
:101770000203089580910903089580910B03089551
:101780008CE080939D0010920B03089586E0809377
:101790009D0081E080930B03089586E080939D0077
:1017A00082E080930B03089586E080939D0083E0A0
:1017B00080930B03089586E080939D0084E08093DE
:1017C0000B0308951F93182F9A01AB0160E070E19D
:1017D0008EE090E00E94B7182150304010929B009C
:1017E00088E180939A008CE080939D00309398006C
:1017F0002093990080939D0010920B03812F83709A
:1018000080930903107810930A038823A9F0129A91
:10181000813051F480919A008F7E80939A001A9AB9
:1018200080919A008F770DC0823069F480919A0080
:10183000806180939A001A98103829F480919A0058
:10184000806880939A001F910895809109038823EE
:1018500079F01A9A80919A008F7E80939A0080E0A6
:1018600098E40197F1F780919A008F7780939A001E
:101870000895809109038823D9F080919B0086FF09
:10188000FCCF8CEC9CE10197F1F780919A0080618C
:1018900080939A001A9880E098E40197F1F780917C
:1018A0000A03803829F480919A00806880939A0016
:1018B0000895982F80919B0085FFFCCF90939C000A
:1018C00080E090E0089580919B0087FFFCCF80919D
:1018D0009C0090E0089520919B0030E020783070CB
:1018E000C9010895982F8A3341F480938C0481E0D4
:1018F00080930503109204030EC080910503882392
:1019000051F080910503E82FF0E0E457FB4F9083FE
:101910008F5F8093050380918C048A33B1F4E0914A
:101920000503F0E0E657FB4F80818D3071F4E091C4
:101930000503F0E0E557FB4F80818A3031F481E008
:101940008093040310920503089580910503803469
:1019500021F410920503109204030895982F833206
:1019600041F480938C0481E080930503109204037A
:101970000EC080910503882351F080910503E82F64
:10198000F0E0E457FB4F90838F5F809305038091D5
:101990008C04833271F4E0910503F0E0E557FB4FCE
:1019A00080818D3031F481E080930403109205032F
:1019B000089580910503803421F41092050310925C
:1019C00004030895982F863041F480938C0410927C
:1019D000050381E0809304031AC08B3111F0853137
:1019E00041F490938C0481E08093050310920403EA
:1019F0000EC080910503882351F080910503E82FE4
:101A0000F0E0E457FB4F90838F5F80930503809154
:101A10008C048B3141F4E0910503F0E0E557FB4F76
:101A20008081843041F080918C04853151F4809123
:101A30000503843031F481E08093040310920503A0
:101A4000089580910503803421F4109205031092CB
:101A500004030895982F8E3789F480910503882315
:101A600069F41092040380910503E82FF0E0E45735
:101A7000FB4F90838F5F8093050314C08091050313
:101A8000882381F080910503843060F48091050300
:101A9000E82FF0E0E457FB4F90838F5F80930503BE
:101AA0001092040380918C048E3751F480910503C9
:101AB000843031F41092050381E08093040308958B
:101AC00080910503803469F42CE834E0C90160E0BA
:101AD00070E040E450E00E94B414109205031092AC
:101AE00004030895982F8E3371F08A3061F080914D
:101AF0000503E82FF0E0E457FB4F90838F5F80935E
:101B0000050310920403E0910503F0E02CE834E0B3
:101B1000E557FB4F80818D30A1F481E08093040371
:101B200080910503803450F480910503E82FF0E0A4
:101B3000E20FF31F10828F5F80930503109205035D
:101B4000089580910503803459F4C90160E070E084
:101B500040E450E00E94B414109205031092040374
:101B600008951F920F920FB60F920BB60F92112489
:101B70002F933F934F935F936F937F938F939F9395
:101B8000AF93BF93EF93FF9380919C0090910B03D1
:101B9000923091F0933028F4992341F09130A1F4E0
:101BA00008C0933061F0943079F40CC00E94720C3C
:101BB0000BC00E94AE0C08C00E94720D05C00E94AE
:101BC0002A0D02C00E94E20CFF91EF91BF91AF91EC
:101BD0009F918F917F916F915F914F913F912F9145
:101BE0000F900BBE0F900FBE0F901F901895982F5F
:101BF0008E3789F480910303882369F410920203DD
:101C000080910303E82FF0E0E453FB4F90838F5F54
:101C10008093030314C080910303882381F0809193
:101C20000303843060F480910303E82FF0E0E45371
:101C3000FB4F90838F5F8093030310920203809188
:101C4000CC048E3751F480910303843031F4109228
:101C5000030381E08093020308958091030380349D
:101C600069F42CEC34E0C90160E070E040E450E03D
:101C70000E94B41410920303109202030895982F47
:101C80008E3371F08A3061F080910303E82FF0E029
:101C9000E453FB4F90838F5F809303031092020302
:101CA000E0910303F0E02CEC34E0E553FB4F80813E
:101CB0008D30A1F481E0809302038091030380348E
:101CC00050F480910303E82FF0E0E20FF31F10823D
:101CD0008F5F8093030310920303089580910303A1
:101CE000803459F4C90160E070E040E450E00E94A3
:101CF000B414109203031092020308951F920F92DE
:101D00000FB60F920BB60F9211242F933F934F9360
:101D10005F936F937F938F939F93AF93BF93EF9353
:101D2000FF938CB190910803923091F0933028F496
:101D3000992341F09130A1F408C0933061F09430C0
:101D400079F40CC00E94020B0BC00E943E0B08C02D
:101D50000E943F0E05C00E94F70D02C00E94720B48
:101D6000FF91EF91BF91AF919F918F917F916F9173
:101D70005F914F913F912F910F900BBE0F900FBE2F
:101D80000F901F901895EF92FF920F931F93CF9390
:101D9000DF93DC01EB01F42EE52E8901409109036C
:101DA000423079F41A9A80919A008F7E80939A003B
:101DB00080E098E40197F1F780919A008F77809303
:101DC0009A0080910B038823A9F490E007C08091CA
:101DD0009B0085FFFCCFE0939C009F5FFD01E90F16
:101DE000F11DE081EA3099F780919B0085FFFCCFDF
:101DF0008AE066C08130A9F490E007C080919B0022
:101E000085FFFCCFE0939C009F5FFD01E90FF11D72
:101E1000E081ED3099F780919B0085FFFCCF8DE04C
:101E20004FC0833091F420E030E0FD01E20FF31F5A
:101E3000E08180919B0085FFFCCFE0939C002F5FA9
:101E40003F4F2430310589F73DC08430D9F58C915E
:101E5000833031F480919B0085FFFCCF83E030C05C
:101E6000863031F480919B0085FFFCCF86E028C04E
:101E7000853111F090E019C020E030E0FD01E20F63
:101E8000F31FE08180919B0085FFFCCFE0939C00D5
:101E90002F5F3F4F2430310589F714C080919B009C
:101EA00085FFFCCFE0939C009F5FFD01E90FF11DD2
:101EB000E081E43099F780919B0085FFFCCF84E0BE
:101EC00080939C00209731F4423011F40E94390C29
:101ED00010E048C00E94390CC8010E94F310082F7E
:101EE00025C080919A008F7780939A008091040397
:101EF0008823B9F0109204038F2D9E2D9C01F901C7
:101F00002134310510F0E0E4F0E02CE834E0CE01BB
:101F1000B901AF010E94AB14802F0E94301110E074
:101F20000BC080919A00806880939A00802F0E9455
:101F3000E010892BB1F617E0802F0E9430118091BC
:101F40000903813079F41A9A80919A008F7E8093E8
:101F50009A0080E098E40197F1F780919A008F77DA
:101F600080939A00812FDF91CF911F910F91FF9065
:101F7000EF900895EF92FF920F931F93CF93DF930B
:101F8000DC01EB01F42EE52E8901209106032230BD
:101F900039F41A9A549880E098E40197F1F7579829
:101FA00080910803882379F404C05D9BFECFECB9CF
:101FB0008F5FFD01E80FF11DE081EA30B1F75D9B15
:101FC000FECF8AE02EC0843069F58C91833021F4F5
:101FD0005D9BFECF83E025C0863021F45D9BFECF64
:101FE00086E01FC0853111F080E012C080E090E0F3
:101FF000FD01E80FF91FE0815D9BFECFECB9019672
:1020000084309105A9F70EC05D9BFECFECB98F5FC0
:10201000FD01E80FF11DE081E430B1F75D9BFECFDB
:1020200084E08CB9209731F4223011F40E94DB0A4D
:1020300010E038C00E94DB0AC8010E94F310082F8C
:102040001DC05798809102038823B9F010920203B3
:102050008F2D9E2D9C01F9012134310510F0E0E413
:10206000F0E02CEC34E0CE01B901AF010E94AB14DA
:10207000802F0E94301110E007C0579A802F0E94D5
:10208000E010892BF1F617E0802F0E94301180912B
:102090000603813039F41A9A549880E098E4019745
:1020A000F1F75798812FDF91CF911F910F91FF90FA
:1020B000EF900895BF9A0895AF92BF92CF92DF92AA
:1020C000EF92FF920F931F93C79AA0E0B0E0BC017C
:1020D000CD010E949E175B016C0126E636E646E6BE
:1020E00055E40E942C187B018C0120E030E040E890
:1020F0005FE30E946E1788231CF461E070E024C047
:10210000C801B70120E03FEF4FE757E40E942818CD
:102110001816B4F4C601B50120E030E040E251E405
:102120000E942C180E94721780E791E005C0FC0104
:102130003197F1F76150704061157105C1F707C023
:10214000C801B7010E947217CB010197F1F7C79838
:102150001F910F91FF90EF90DF90CF90BF90AF90C5
:1021600008959C014FB7F894C79A80910E059091FD
:102170000F058217930738F080910E0590910F0597
:102180008F5F9F4F21F430930F0520930E054FBFB3
:10219000089580E090E02FEF3FEFFC01EE0FFF1F6E
:1021A000E45FFA4F31832083019680329105A9F7CD
:1021B00087B7826087BF83E781BF8DE083BF0895C3
:1021C0009FB7F894803218F0E0E0F0E009C0E82F03
:1021D000F0E0EE0FFF1FE45FFA4F0190F081E02D79
:1021E0009FBFCF0108959C015FB7F894A2E0B0E0D3
:1021F0004A2FFD01EE0FFF1FE45FFA4F80819181AE
:102200008F5F9F4F71F48FEF2F3F380711F42EEF40
:102210003FEFAA0FBB1FA45FBA4F11963C932E93BA
:1022200005C04F5F1196A032B10511F75FBF842F33
:1022300008952FB7F8943FEF8F3F930711F48EEF77
:102240009FEF90930D0580930C052FBF2FB7F89447
:1022500080910C0590910D052FBF892BB9F708953A
:10226000E82F2FB7F89482508E3148F4F0E0EE0F4B
:10227000FF1FE45FFA4F8FEF9FEF918380832FBFA3
:10228000089583B7887F83BF089583B7856083BF30
:1022900008951F920F920FB60F920BB60F92112452
:1022A0002F933F934F935F936F937F938F939F935E
:1022B000AF93BF93EF93FF9320E030E0F901EE0F6F
:1022C000FF1FE45FFA4F80819181892B51F080815B
:1022D00091818F5F9F4F29F0808191810197918338
:1022E00080832F5F3F4F2032310541F780910E05EB
:1022F00090910F05019709F4C7980E9430058091CD
:10230000F9029091FA0201979093FA028093F902F0
:102310000196C9F480910C0390910D03A0910E03D6
:10232000B0910F030196A11DB11D80930C039093F2
:102330000D03A0930E03B0930F038AEE93E09093E6
:10234000FA028093F9028091100390911103A091F9
:102350001203B09113030196A11DB11D80931003C8
:1023600090931103A0931203B0931303FF91EF9185
:10237000BF91AF919F918F917F916F915F914F919D
:102380003F912F910F900BBE0F900FBE0F901F909B
:10239000189520E030E0F901EC53FA4F1082C901A2
:1023A000880F991FF90145E0EE0FFF1F4A95E1F7ED
:1023B000E81BF90BE45BFA4F80E090E01192119278
:1023C00001968F309105D1F72F5F3F4F24303105B3
:1023D00011F70895809114038F5F80931403843064
:1023E00011F410921403089580911403882319F4B2
:1023F00084E080931403809114038150809314032C
:10240000089580911403282F30E0F901EC53FA4F1E
:1024100080818F5F80838F3009F41082D901AC53A3
:10242000BA4F8C91F90174E0EE0FFF1F7A95E1F736
:10243000E21BF30BE80FF11DEE0FFF1FE45BFA4FF9
:1024400080819181892B09F41C9208958091140355
:10245000A82FB0E0FD01EC53FA4F8081882311F4DE
:102460008FE08083FD01EC53FA4F40819D0194E0A1
:10247000220F331F9A95E1F72A1B3B0B4150F901BC
:10248000E40FF11DEE0FFF1FE45BFA4F8081918195
:10249000892B31F4442391F7AC53BA4F1C92089521
:1024A000AC53BA4F4C9308958091140308958091D2
:1024B0001403E4ECF5E0E80FF11D808108958091AC
:1024C000140390E0FC01EC53FA4F2081FC0134E04E
:1024D000EE0FFF1F3A95E1F7E81BF90BE20FF11D34
:1024E000EE0FFF1FE45BFA4F0190F081E02D09959C
:1024F0000895FB018F708A3010F4805D01C0895C03
:10250000808380E00895FB01982F92959F709A3008
:1025100010F4905D01C0995C90838F708A3010F444
:10252000805D01C0895C818380E00895FF920F93F4
:102530001F93F82E8B01892F0E9483120E5F1F4F6D
:102540008F2DB8010E94831280E01F910F91FF90A0
:102550000895982FFB018154863020F4975390837F
:1025600080E00895892F80538A3010F082E008952A
:10257000808380E00895FC01DB019081892F8154E4
:10258000863018F4292F275306C0292F20532A30CC
:1025900010F082E00895322F3295307F3C93918184
:1025A000892F8154863010F4975306C090539A3087
:1025B00018F0922F82E001C080E0390F3C9308951B
:1025C000CF92DF92EF92FF920F931F93DF93CF93FF
:1025D0000F92CDB7DEB77C018B016E010894C11C50
:1025E000D11CB6010E94BB12382F882391F4898137
:1025F000F80110828183C7010296B6010E94BB12C6
:10260000382F2981F80180819181820F911D91835A
:102610008083832F0F90CF91DF911F910F91FF90B7
:10262000EF90DF90CF9008956F927F928F929F925C
:10263000AF92BF92CF92DF92FF920F931F93DF93DF
:10264000CF930F92CDB7DEB75C016B014A01FF2437
:1026500000E010E03E010894611C711C0CC0C50133
:10266000800F911FB3010E94BB12882369F40E5F93
:102670001F4F8981F80E0C151D0588F38F2D81954C
:10268000B4010E94831280E00F90CF91DF911F91DF
:102690000F91FF90DF90CF90BF90AF909F908F9061
:1026A0007F906F900895CF92DF92FF920F931F93C8
:1026B000CF93DF938C016B01DC015C968C915C976E
:1026C000813039F411968C91833019F48BE390E0CA
:1026D00002C081E190E04817590710F494E066C009
:1026E000F6018AE38193D8018C91BF010E94831285
:1026F000B6016D5F7F4FF80181810E948312E60170
:102700002596D8015C968C915C97813071F4119676
:102710008C911197833049F412968C91880FBE01E9
:102720000E948312E601279607C0F80182819381F7
:10273000BE010E9496122496D80114968D919C9108
:102740001597BE010E9496122496F801848D81305F
:10275000E1F481818330C9F4FF24F3940CC03296F4
:10276000EE0FFF1FE00FF11F80819181BE010E94DB
:1027700096122496F394EF2DF0E0D80112968D91E5
:102780009C911397E817F90750F3B601609570957F
:102790006C0F7D1FC6010196AE010E941413982F85
:1027A000882321F48DE08A838AE08B83892FDF914F
:1027B000CF911F910F91FF90DF90CF900895AF922E
:1027C000BF92CF92DF92EF92FF920F931F93DF930E
:1027D000CF9300D00F92CDB7DEB76C018B018DE1A6
:1027E000FB0111928A95E9F7F60160E070E08081C3
:1027F0008D30B9F481818A30A1F442E0A42EB12C4D
:10280000A60EB71E76010894E11CF11C63507040BF
:10281000C701AE014E5F5F4F0E941413882349F039
:102820008CC06F5F7F4F31966B33710501F785E088
:1028300084C0F601EA0DFB1D34979A81808134969D
:10284000981709F077C033979B818081981709F01A
:1028500071C0C701B8010E94BB12882309F06DC086
:1028600033E0E32EF12CEC0CFD1CB8016F5F7F4FC1
:10287000C7010E94BB12882309F05FC0F801818163
:10288000833009F044C0F1E1AF16B10409F43FC050
:1028900081E0F801848F25E0E22EF12CEC0CFD1C88
:1028A000C701BE016F5F7F4F0E94BB12D82E8823E5
:1028B00009F042C0898186958C3018F08CE090E058
:1028C00001C090E0F8019383828382E090E0E80EFB
:1028D000F91E198212C06E5F7F4F660F771F600F5F
:1028E000711FC7010E94E012882339F589818F5F2B
:1028F0008983E4E0F0E0EE0EFF1E8981682F70E02E
:10290000F801828193816817790728F315C0F801CF
:10291000148EB8016E5F7F4FC70102960E94E012CD
:10292000882359F40C5F1F4FC7010696B8010E9417
:10293000E01203C083E001C08D2D0F900F900F9027
:10294000CF91DF911F910F91FF90EF90DF90CF908B
:10295000BF90AF900895FB01DC0102C001900D9281
:1029600041505040D8F70895DC0101C06D934150AB
:102970005040E0F70895FB01DC010D900020E9F7DD
:10298000119701900D920020E1F70895FB01DC0101
:1029900001900D920020E1F70895AEE0B0E0E3ED84
:1029A000F4E10C94E7180D891E8986E08C831A8364
:1029B00009838FEF9FE79E838D839E01275E3F4FA4
:1029C000CE0101966F89788DA9010E94F1142F81A3
:1029D0003885020F131FF80110822E96E4E00C9444
:1029E0000319ABE0B0E0E7EFF4E10C94D9183C0137
:1029F0002B015A01FC0117821682838181FD03C0DD
:102A00006FEF7FEFC6C19AE0892E1E010894211C4A
:102A1000311CF3012381F20123FD859123FF819174
:102A20002F01882309F4B2C1853239F423FD859141
:102A300023FF81912F01853229F490E0B3010E9498
:102A4000E416E7CF982FFF24EE249924FFE1FF1529
:102A5000D0F09B3269F09C3228F4903259F09332D6
:102A600091F40EC09D3249F0903369F441E024C0E6
:102A700052E0F52A84E0F82A28C098E0F92A25C017
:102A8000E0E1FE2A22C0F7FC29C0892F80538A305A
:102A900070F4F6FE05C0989C902C1124980E15C079
:102AA000E89CE02C1124E80EF0E2FF2A0EC09E32D2
:102AB00029F4F6FC6BC140E4F42A07C09C3619F4F3
:102AC00050E8F52A02C0983649F4F20123FD9591A9
:102AD00023FF91912F01992309F0B8CF892F8554B5
:102AE000833018F08052833038F444E050E0A40E74
:102AF000B51E5FE359830FC0933631F0933779F0F9
:102B0000933509F056C020C0F5018081898342E0E9
:102B100050E0A40EB51E610101E010E012C0F50105
:102B2000C080D180F6FC03C06FEF7FEF02C0692D3B
:102B300070E042E050E0A40EB51EC6010E94D91616
:102B40008C015FE7F52214C0F501C080D180F6FC4E
:102B500003C06FEF7FEF02C0692D70E042E050E0EC
:102B6000A40EB51EC6010E94CE168C0150E8F52AAF
:102B7000F3FE07C01AC080E290E0B3010E94E416A1
:102B8000EA948E2D90E008171907A8F30EC0F601FD
:102B9000F7FC8591F7FE81916F0190E0B3010E94EF
:102BA000E416E110EA94015010400115110579F77F
:102BB000EAC0943611F0993669F5F7FE08C0F501C0
:102BC000208131814281538184E090E00AC0F50187
:102BD000808191819C01442737FD4095542F82E0EC
:102BE00090E0A80EB91E9FE6F92257FF09C0509544
:102BF0004095309521953F4F4F4F5F4FE0E8FE2ABB
:102C0000CA01B901A1012AE030E00E941017D82EB4
:102C1000D21840C0953729F41F2D1F7E2AE030E0DE
:102C20001DC01F2D197F9F3661F0903720F4983515
:102C300009F0ACC00FC0903739F0983709F0A6C042
:102C400004C028E030E00AC0106114FD146020E1E7
:102C500030E004C014FD166020E132E017FF08C028
:102C6000F501608171818281938144E050E008C068
:102C7000F50180819181BC0180E090E042E050E06C
:102C8000A40EB51EA1010E941017D82ED2188FE7EE
:102C9000F82EF122F6FE0BC05EEFF522D91438F4BF
:102CA000F4FE07C0F2FC05C08FEEF82202C01D2D15
:102CB00001C0192DF4FE0DC0FE01ED0DF11D808146
:102CC000803319F499EEF92208C01F5FF2FE05C0A7
:102CD00003C08F2D867809F01F5F0F2DF3FC14C001
:102CE000F0FE0FC01E1510F09D2C0BC09D2C9E0CED
:102CF000911A1E2D06C080E290E0B3010E94E416F6
:102D00001F5F1E15C0F304C01E1510F4E11A01C0A8
:102D1000EE2404FF0FC080E390E0B3010E94E416AC
:102D200002FF1DC001FD03C088E790E00EC088E5EA
:102D300090E00BC0802F867891F001FF02C08BE2FB
:102D400001C080E2F7FC8DE290E0B3010E94E4163E
:102D500006C080E390E0B3010E94E4169A94D9146F
:102D6000C0F3DA94F101ED0DF11D808190E0B30123
:102D70000E94E416DD20A9F706C080E290E0B301CE
:102D80000E94E416EA94EE20C1F743CEF301668177
:102D90007781CB012B96E2E10C94F518FC010590AC
:102DA000615070400110D8F7809590958E0F9F1F4D
:102DB0000895FC016150704001900110D8F7809592
:102DC00090958E0F9F1F08950F931F93CF93DF93BE
:102DD0008C01EB018B8181FF1BC082FF0DC02E8116
:102DE0003F818C819D812817390764F4E881F9813E
:102DF0000193F983E88306C0E885F985802F09955A
:102E0000892B31F48E819F8101969F838E8302C02E
:102E10000FEF1FEFC801DF91CF911F910F91089520
:102E2000FA01AA27283051F1203181F1E8946F93FB
:102E30006E7F6E5F7F4F8F4F9F4FAF4FB1E03ED0A1
:102E4000B4E03CD0670F781F891F9A1FA11D680F3F
:102E5000791F8A1F911DA11D6A0F711D811D911D72
:102E6000A11D20D009F468943F912AE0269F1124E7
:102E70003019305D3193DEF6CF010895462F47704B
:102E8000405D4193B3E00FD0C9F7F6CF462F4F70A6
:102E9000405D4A3318F0495D31FD4052419302D004
:102EA000A9F7EACFB4E0A6959795879577956795AA
:102EB000BA95C9F700976105710508959B01AC01AA
:102EC0000A2E06945795479537952795BA95C9F7D1
:102ED000620F731F841F951FA01D08956CD008F406
:102EE00081E0089594D088F09F5790F0B92F9927EA
:102EF000B751A0F0D1F0660F771F881F991F1AF005
:102F0000BA95C9F712C0B13081F09BD0B1E00895F5
:102F100098C0672F782F8827B85F39F0B93FCCF376
:102F2000869577956795B395D9F73EF490958095FA
:102F3000709561957F4F8F4F9F4F0895E89409C01A
:102F400097FB3EF490958095709561957F4F8F4FDC
:102F50009F4F9923A9F0F92F96E9BB279395F695F2
:102F6000879577956795B795F111F8CFFAF4BB0F70
:102F700011F460FF1BC06F5F7F4F8F4F9F4F16C0D4
:102F8000882311F096E911C0772321F09EE8872F5E
:102F9000762F05C0662371F096E8862F70E060E01A
:102FA0002AF09A95660F771F881FDAF7880F969593
:102FB000879597F90895990F0008550FAA0BE0E837
:102FC000FEEF16161706E807F907C0F012161306EB
:102FD000E407F50798F0621B730B840B950B39F42B
:102FE0000A2661F0232B242B252B21F408950A2691
:102FF00009F4A140A6958FEF811D811D089557FD0D
:103000009058440F551F59F05F3F71F04795880F56
:1030100097FB991F61F09F3F79F0879508951216ED
:1030200013061406551FF2CF4695F1DF08C0161699
:1030300017061806991FF1CF86957105610508944A
:103040000895E894BB2766277727CB0197F9089561
:10305000B2DF08F48FEF08950BD078C069D028F064
:103060006ED018F0952309F05AC05FC01124EACF42
:10307000C6DFA0F3959FD1F3950F50E0551F629FD7
:10308000F001729FBB27F00DB11D639FAA27F00DC1
:10309000B11DAA1F649F6627B00DA11D661F829FE8
:1030A0002227B00DA11D621F739FB00DA11D621FCD
:1030B000839FA00D611D221F749F3327A00D611DEA
:1030C000231F849F600D211D822F762F6A2F1124CC
:1030D0009F5750408AF0E1F088234AF0EE0FFF1F1F
:1030E000BB1F661F771F881F91505040A9F79E3F56
:1030F000510570F014C0A6CF5F3FECF3983EDCF3AF
:10310000869577956795B795F795E7959F5FC1F792
:10311000FE2B880F911D9695879597F9089597F93D
:103120009F6780E870E060E008959FEF80EC08956D
:1031300000240A9416161706180609060895002496
:103140000A9412161306140605060895092E039410
:10315000000C11F4882352F0BB0F40F4BF2B11F484
:1031600060FF04C06F5F7F4F8F4F9F4F0895A1E2B4
:103170001A2EAA1BBB1BFD010DC0AA1FBB1FEE1FF1
:10318000FF1FA217B307E407F50720F0A21BB30B3C
:10319000E40BF50B661F771F881F991F1A9469F7B8
:1031A00060957095809590959B01AC01BD01CF0114
:1031B00008952F923F924F925F926F927F928F92DB
:1031C0009F92AF92BF92CF92DF92EF92FF920F93B6
:1031D0001F93CF93DF93CDB7DEB7CA1BDB0B0FB6C0
:1031E000F894DEBF0FBECDBF09942A88398848887D
:1031F0005F846E847D848C849B84AA84B984C88413
:10320000DF80EE80FD800C811B81AA81B981CE0F09
:10321000D11D0FB6F894DEBF0FBECDBFED010895EE
:04322000F894FFCF50
:10322400FFFF3200050041434B004B4559203D2030
:10323400256420202000090025640048454C4C4F9B
:1032440000C2C5D0D1C8DF20CFCE3A202020202014
:103254002000252D31367300323030383132303190
:1032640000D0C5C6C8CC20D1C8D0C5CDDB20202015
:103274002000256420202020202020202020202021
:103284002020202000CFD0C8C6C8CC20D2D32020F4
:10329400202020202000C2DBCACBDED7C5CD00C24F
:1032A400CACBDED7C5CD00257320202020202020C6
:1032B40020202020202020202000C4C2C8C32E208B
:1032C400CDC0CACECFC8D2C5CBDF00CACECDD2D0F6
:1032D400CECBDC20D4CECBDCC3C82000CBC0CCCF3B
:1032E400C02027D1D2CECF272020202000C2DBCA85
:1032F400CBDED7C5CDC000C2CACBDED7C5CDC0009A
:10330400CBC0CCCFC02027C4C0C2CBC5CDC8C52735
:1033140000CBC0CCCFC02027C3C5D0CCC5D22E276C
:103324002000C2DBD5CEC4DB20202020202020209A
:1033340020200020202020202020202020202020A9
:103344002020200025732020202020202020202041
:10335400202020202000C2D5CEC4DB202020202025
:1033640020202020202000CEC0CE20CDCFCF20D1C1
:10337400C8D1D2C5CCC020002020202020CBCCCF67
:10338400D22D31202020202000CACECDC5D620D475
:10339400CECBDCC3C8202020202000C4C000CDC573
:1033A400D200C7C0CCC5CDC020C1CEC1C8CDDB20A2
:1033B40020202000D1CCCED2CAC020D4CECBDCC3B6
:1033C400C8202020200069027B027E0282027B0248
:1033D4007E0294027B027E020141A042A1E045A349
:1033E400A4A5A64BA74D484FA8504354A9AA58E1F9
:1033F400ABACE2ADAE62AFB0B161B2B3B4E365B64B
:10340400B7B8B9BABBBCBD6FBE7063BF79E478E529
:0C341400C0C1E6C2C3C4C5C6C7EA0300BD
:00000001FF
