:100000000C9446000C9465000C9465000C946500FB
:100010000C9465000C9465000C9465000C946500CC
:100020000C9465000C9465000C9465000C946500BC
:100030000C9465000C9465000C9465000C94F60F0C
:100040000C9465000C9465000C949E0D0C94650056
:100050000C9465000C9465000C9465000C9465008C
:100060000C9465000C9465000C9465000C9465007C
:100070000C9465000C9465000C94D90C0C946500EC
:100080000C9465000C9465000C94650011241FBE4F
:10009000CFEFD0E1DEBFCDBF13E0A0E0B1E0E6E6F8
:1000A000FFE200E00BBF02C007900D92AC32B10737
:1000B000D9F715E0ACE2B3E001C01D92A739B10752
:1000C000E1F70E94B4040C94B1170C94000081E095
:1000D00080934A0310924B0312B80895EF92FF9257
:1000E0000F931F93CF93DF9381B182958F705091BF
:1000F0000101A091000100E010E0C82FD0E081E0F4
:10010000E82EF12C402F2A2F30E0002E02C035952A
:1001100027950A94E2F721703070B22F222399F0CC
:10012000852F90E0002E02C0959587950A94E2F7FE
:1001300080FF09C0CE01002E02C0959587950A94D4
:10014000E2F780FF4AC021153105C9F5852F90E0FF
:10015000042E02C0959587950A94E2F7FC01E170A0
:10016000F07080FF19C0CE01042E02C095958795CE
:100170000A94E2F7BC016170707080FD09C0C7018C
:1001800002C0880F991F4A95E2F7809558234AC00C
:10019000EE2311F0662359F4EF2B89F4CE01042EDF
:1001A00002C0959587950A94E2F780FF08C0C701C1
:1001B00002C0880F991F4A95E2F7A82B33C0BB23D2
:1001C000A9F0852F90E08C2B9D2B042E02C09595D5
:1001D00087950A94E2F780FD09C0C70102C0880F25
:1001E000991F4A95E2F78095A8231CC0232BD1F0D4
:1001F000852F90E0042E02C0959587950A94E2F72A
:1002000080FD10C0CE01042E02C0959587950A94FA
:10021000E2F780FF07C0C70102C0880F991F4A9507
:10022000E2F7582B0F5F1F4F0830110509F06ACF16
:1002300050930101A093000180914A03952F90955E
:10024000982380958523982B90934B03DF91CF9132
:100250001F910F91FF90EF9008950E946E000895F6
:1002600020E030E0682F70E042E6CB01022E02C0B1
:10027000959587950A94E2F780FF02C0C19A01C064
:10028000C198842F8A95F1F7C29A842F8A95F1F745
:10029000C298C198842F8A95F1F72F5F3F4F28307D
:1002A000310519F7089580914C030E943001C49ADA
:1002B00082E68A95F1F7C498089590914C03809155
:1002C0004D03891721F090934D030E945301089527
:1002D000B99ABA9ABC9AC198C298C49810924C0321
:1002E0008FEF80934D03089510926E038FEF8093EC
:1002F00077038093720310926F0380937803809347
:1003000073031092700380937903809374031092A7
:10031000710380937A0380937503EEE4F3E0119206
:10032000119283E0EE36F807D1F710926100A49A9B
:10033000A59AA69AA79A0895882311F4AC9805C0A7
:10034000AC9A813011F4AD9805C0AD9A823011F4A9
:10035000AE9805C0AE9A833011F4AF980895AF9A65
:10036000089510926E0310926F0310927003109212
:100370007103089540B190E083709070049621E07D
:1003800030E002C0220F331F8A95E2F7842F8223C8
:100390000895CF92DF92EF92FF920F931F93DF9316
:1003A000CF93CDB7DEB72A970FB6F894DEBF0FBE56
:1003B000CDBFE82F7E010894E11CF11C87019E014E
:1003C000255F3F4F80B1D8018D938D01A217B307F0
:1003D000C9F7F0E0DF01A958BC4F8C91EE58FC4FF3
:1003E000808364E070E081E0C82ED12C1CC0808145
:1003F00090E082239323892B09F04F5F3196E01719
:10040000F107A9F7483018F08C91822B06C04330D1
:1004100028F49C91822F809589238C936F5F7F4F66
:100420006830710551F09601062E02C0220F331F6D
:100430000A94E2F7F70140E0DACF2A960FB6F89473
:10044000DEBF0FBECDBFCF91DF911F910F91FF9007
:10045000EF90DF90CF900895CF93DF93982F9695EC
:100460009695692F70E0FB01E958FC4F2081A82F79
:10047000B0E0AD01437050704C5F5F4F30E0042E30
:1004800002C0359527950A94E2F720FF21C0FB01B1
:10049000EE58FC4F808190E0042E02C09595879520
:1004A0000A94E2F780FD14C0FB01E259FC4F208161
:1004B00081E090E002C0880F991F4A95E2F7282B4F
:1004C0002083AA0FBB1FA25BBC4F1D921C925CC075
:1004D000FB01E958FC4F808190E0042E02C0959505
:1004E00087950A94E2F780FD0DC0FB01EE58FC4FA2
:1004F000808190E0042E02C0959587950A94E2F7DA
:1005000080FD42C0FB01E958FC4F808190E0042E41
:1005100002C0959587950A94E2F780FD35C0FB01EE
:10052000EE58FC4F808190E0042E02C0959587958F
:100530000A94E2F780FD28C0AA0FBB1FA25BBC4F44
:100540002D913C9111972F5F3F4F11963C932E9325
:10055000C0910201D09103018091040190910501A5
:100560008C0F9D1F8217930778F4FB01E259FC4F13
:10057000208181E090E002C0880F991F4A95E2F740
:10058000282B2083CD93DC93DF91CF9108950F9397
:100590001F9310E008E1812F0E949C01802F8A9513
:1005A000F1F7812F0E94C9011F5F1430A1F710E0FD
:1005B000812F0E942C021F5F1031D1F71F910F91E4
:1005C0000895809176038150809376038F5F29F49C
:1005D0008AE0809376030E94C702089590912D03CC
:1005E00080913403891741F09093340380914C0338
:1005F000807C892B80934C03089580912D0320915A
:100600002F033091300385FF6DC02115310591F422
:1006100084EF91E00E94A00F80932F03109230038B
:1006200080914C0385FF02C08F7D01C08062809362
:100630004C030895822F0E948D0F892B49F48091DD
:100640002F030E94DD0F1092300310922F030895A4
:1006500080912F030E948D0F8A3F910508F05AC0A8
:1006600080914C0385FF22C080914B0390912E0313
:1006700080FF02C0916001C09E7F90932E03809105
:100680004B0390912E0381FF02C0926001C09D7FB9
:1006900090932E0380914B0390912E0382FF02C012
:1006A000946001C09B7F90932E03089580914B032B
:1006B00080FF05C080912E03886080932E03809177
:1006C0004B0381FF05C080912E03806180932E0330
:1006D00080914B0382FF1EC080912E038062809325
:1006E0002E03089580914C038F7D80934C0380915D
:1006F0004B0380932E032115310519F0822F0E94A0
:10070000DD0F1092300310922F0380912E03877C0F
:1007100080932E0308951F9310912D031295169523
:10072000169513702091320330913303112391F405
:100730002115310519F0822F0E94DD0F109233032D
:10074000109232031092310380914C038F73809387
:100750004C0349C080914C03806480934C03211565
:10076000310531F520913103812F90E00197FC0193
:10077000EE0FFF1FE80FF91FEE0FFF1FE20FF11D35
:10078000EE0FFF1FE25DFE4F808191810E94A00F5E
:1007900080933203109233038091310390914C0384
:1007A00080FF02C09F7701C0906890934C031BC0EC
:1007B000822F0E948D0F892BB1F4809132030E9409
:1007C000DD0F1092330310923203809131038F5F5B
:1007D00080933103E12FF0E0E65DFE4F90819817A2
:1007E00010F4109231031F910895AF92BF92CF92EF
:1007F000DF92EF92FF921F93CF93DF93C0E0D0E0A0
:1008000061E0A62EB12C5BE0C52E54E0D52E46E06B
:10081000E42E41E0F42E8C2F86958695E82FF0E0AB
:10082000E259FC4F80819E01237030702C5F3F4F56
:1008300090E0022E02C0959587950A94E2F780FF1A
:100840002AC08081A50102C0440F551F2A95E2F7F6
:100850009A0120952823208300D000D000D0EDB746
:10086000FEB73196ADB7BEB71296DC92CE92119715
:10087000F382E282D583C4830E946E134DB75EB7C4
:100880004A5F5F4F0FB6F8945EBF0FBE4DBF8C2F0F
:10089000805D0E94B00A2196C031D10509F0BBCF1E
:1008A000DF91CF911F91FF90EF90DF90CF90BF909D
:1008B000AF900895FC01248182819381823091055B
:1008C00041F08330910549F0019769F420932D039D
:1008D0000AC080912D03822B04C0209580912D03A6
:1008E000822380932D03108283E0818381E0848FB3
:1008F00081E090E09383828390912D0380E02091AA
:100900002E0330E0822B932B95838483CF016CE7F9
:1009100073E04BE350E00E94001280E090E9019701
:10092000F1F78CE793E060E070E040E050E020E019
:1009300030E00E94960E089580913703882381F05D
:100940008BE994E06CEE73E00E948B128093EA03D3
:1009500010923703882321F48CEE93E00E945A040E
:1009600008950E94E1020895DF92EF92FF920F93A3
:100970001F93CF93DF9381E040E052EC61E070E0A1
:100980000E945C0A80E040E052EC61E070E00E946E
:10099000520B0E94760F0E9474010E9468010E940F
:1009A00067000E94070F789488EE93E00E94090F79
:1009B00088E893E120E731E0F9013197F1F70197F9
:1009C000D9F788EC90E00E94090F80ED97E020E7CE
:1009D00031E0F9013197F1F70197D9F788EC90E010
:1009E0000E94090F80ED97E020E731E0F90131978F
:1009F000F1F70197D9F70E94930928E833E173E3EF
:100A0000E72E74E0F72E0AE111E0DD24DA94C0E766
:100A1000D1E005C0CE010197F1F7215030402115FA
:100A20003105C1F780E30E94B00A81E30E94C90B3F
:100A30000E94F5030E941F0A0E945D010E942D0181
:100A400080914B0300D000D000D0EDB7FEB73196B7
:100A5000ADB7BEB71296FC92EE9211971383028344
:100A6000848315820E946E138DB79EB706960FB6CB
:100A7000F8949EBF0FBE8DBF80914C03882319F45C
:100A8000D0924C0302C010924C0328E833E1C2CF4D
:100A90008FE299E090931C0580931B0580E298E01B
:100AA00090933A05809339058AED97E09093580525
:100AB0008093570585E097E090935A0580935905F8
:100AC00083E997E090935C0580935B058CE497E065
:100AD00090935E0580935D0580E396E090936005BA
:100AE00080935F0587E796E09093620580936105A8
:100AF0008EEB96E0909364058093630582EE95E01B
:100B0000909366058093650589EB95E09093760553
:100B100080937505089580916E0386FF0BC00E9437
:100B2000D31080916E038F7B80936E0382E390E0FD
:100B30000E94090F80916F0386FF0BC00E94AE10C8
:100B400080916F038F7B80936F0382E390E00E941C
:100B5000090F80916E0385FF0BC00E949710809152
:100B60006E038F7D80936E0382E390E00E94090FF5
:100B7000089583E394E062E571E00E94671300D07A
:100B800000D000D0EDB7FEB731968BE094E0ADB762
:100B9000BEB712969C938E93119783E691E0938350
:100BA000828389E691E0958384830E946E138DB7DA
:100BB0009EB706960FB6F8949EBF0FBE8DBF0E94DB
:100BC0008B05089583E394E062E771E00E94671368
:100BD00000D000D000D0EDB7FEB731968BE094E0A6
:100BE000ADB7BEB712969C938E93119783E891E0B0
:100BF0009383828380912D03829586958695837059
:100C0000848315820E946E1380916E032DB73EB7C8
:100C10002A5F3F4F0FB6F8943EBF0FBE2DBF87FF30
:100C20001CC080916E038F7780936E0390912D038B
:100C3000892F82958695869583708F5F843008F022
:100C400080E08295880F880F807C9F73892B80932A
:100C50002D0382E390E00E94090F0E948B05089506
:100C600083E394E066E971E00E94671380912D03AD
:100C700083FD03C027EA31E002C020EB31E000D061
:100C800000D000D0EDB7FEB731968BE094E0ADB761
:100C9000BEB712969C938E93119788EB91E0938345
:100CA0008283358324830E946E1380916E032DB757
:100CB0003EB72A5F3F4F0FB6F8943EBF0FBE2DBF21
:100CC00087FF12C080916E038F7780936E038091AF
:100CD0002D0383FF02C0877F01C0886080932D03AE
:100CE00082E390E00E94090F0E948B05089583E340
:100CF00094E06BEC71E00E94671380912D0384FDFA
:100D000003C027EA31E002C020EB31E000D000D080
:100D100000D0EDB7FEB731968BE094E0ADB7BEB72B
:100D200012969C938E93119788EB91E09383828324
:100D3000358324830E946E1380916E032DB73EB7D6
:100D40002A5F3F4F0FB6F8943EBF0FBE2DBF87FFFF
:100D500012C080916E038F7780936E0380912D0374
:100D600084FF02C08F7E01C0806180932D0382E3E7
:100D700090E00E94090F0E948B05089583E394E0A0
:100D80006CED71E00E94671380912D0385FD03C017
:100D900027EA31E002C020EB31E000D000D000D0E3
:100DA000EDB7FEB731968BE094E0ADB7BEB71296C3
:100DB0009C938E93119788EB91E093838283358384
:100DC00024830E946E1380916E032DB73EB72A5F75
:100DD0003F4F0FB6F8943EBF0FBE2DBF87FF12C026
:100DE00080916E038F7780936E0380912D0385FF32
:100DF00002C08F7D01C0806280932D0382E390E06A
:100E00000E94090F0E948B05089583E394E06DEE24
:100E100071E00E94671380912D0382FD03C02EEFC5
:100E200031E002C028E032E000D000D000D0EDB7C1
:100E3000FEB731968BE094E0ADB7BEB712969C93A7
:100E40008E93119788EB91E093838283358324837B
:100E50000E946E1380916E032DB73EB72A5F3F4FFD
:100E60000FB6F8943EBF0FBE2DBF87FF12C0809112
:100E70006E038F7780936E0380912D0382FF02C0F3
:100E80008B7F01C0846080932D0382E390E00E94F9
:100E9000090F0E948B05089583E394E061E172E0FD
:100EA0000E94671380912D0381FD03C02EEF31E076
:100EB00002C028E032E000D000D000D0EDB7FEB78D
:100EC00031968BE094E0ADB7BEB712969C938E93AB
:100ED000119788EB91E093838283358324830E946A
:100EE0006E1380916E032DB73EB72A5F3F4F0FB64A
:100EF000F8943EBF0FBE2DBF87FF12C080916E03D6
:100F00008F7780936E0380912D0381FF02C08D7FC8
:100F100001C0826080932D0382E390E00E94090F5C
:100F20000E948B05089583E394E062E272E00E94E0
:100F3000671380912D0380FD03C02EEF31E002C0C6
:100F400028E032E000D000D000D0EDB7FEB73196F7
:100F50008BE094E0ADB7BEB712969C938E93119739
:100F600088EB91E093838283358324830E946E1300
:100F700080916E032DB73EB72A5F3F4F0FB6F894AE
:100F80003EBF0FBE2DBF87FF12C080916E038F77CB
:100F900080936E0380912D0380FF02C08E7F01C07D
:100FA000816080932D0382E390E00E94090F0E94EC
:100FB0008B05089583E394E063E372E00E94671376
:100FC0008BE094E064E472E00E94671320912D03AB
:100FD000922F20FD02C08EE201C083EC80930B04AF
:100FE00091FD02C08EE201C084EC80930C0492FD5E
:100FF00002C08EE201C083E580930D0493FD02C020
:101000008EE201C08FEC80930E0494FD02C08EE24C
:1010100001C081EC80930F0495FD02C08EE201C0F7
:101020008BEC8093100480E2809311042295269526
:1010300026952370205D209312040E948B0508954D
:1010400080916E0387FF0FC080916E038F7780932E
:101050006E038091E90291E089278093E90282E39F
:1010600090E00E94090F8091E902882351F080915D
:101070003503882331F488EE93E00E94A00F80931B
:101080003503809135038823C9F00E948D0F892B89
:10109000A9F4809135030E94DD0F109235038091F1
:1010A000E902882329F0809136038F5F809336030D
:1010B00080913603833010F0109236038091E9025C
:1010C000882379F580916E0386FF15C080916E03A9
:1010D0008F7B80936E0382E390E00E94090F8091E2
:1010E0003603882319F483E0809336038091360316
:1010F00081508093360380916F0386FF12C08091E8
:101100006F038F7B80936F0382E390E00E94090F4F
:10111000809136038F5F80933603833010F01092F6
:10112000360300D000D000D0ADB7BEB7119683E330
:1011300094E0EDB7FEB79283818385E592E0139644
:101140009C938E9312978091360390E0FC01EE0FF2
:10115000FF1FE80FF91FEE0FFF1FE952FD4F8081BF
:10116000918115969C938E9314970E946E132091F3
:101170004B0380913603482F50E030E0CA0187705E
:10118000907002C0359527958A95E2F78DB79EB786
:1011900006960FB6F8949EBF0FBE8DBFFA01EE0FF4
:1011A000FF1F20FF09C0E40FF51FEE0FFF1FE952DC
:1011B000FD4F2281338108C0E40FF51FEE0FFF1FA2
:1011C000E952FD4F2481358100D000D000D0EDB729
:1011D000FEB731968BE094E0ADB7BEB712969C9304
:1011E0008E93119785E592E09383828335832483E0
:1011F0000E946E13EDB7FEB736960FB6F894FEBF99
:101200000FBEEDBF0E948B05089583E394E067E66F
:1012100072E00E9467138BE094E064E472E00E9445
:10122000671340E050E080914B0390E09A012770F3
:10123000307002C0959587952A95E2F780FD02C02F
:101240008EE201C081E3FA01E55FFB4F80834F5FCF
:101250005F4F4330510539F70E948B05089583E3B2
:1012600094E068E772E00E9467138BE094E069E81D
:1012700072E00E9467130E948B050895883A11F46A
:1012800082EA0895883B11F485EB0895803C28F0AC
:10129000E82FF0E0E65DFD4F80810895AA98A998B7
:1012A0009FEF9ABB8BBB84E08A95F1F7A89A8EE0FA
:1012B0008A95F1F7A89880E090E90197F1F70895F1
:1012C000AA9AA9989FEF9ABB8BBB84E08A95F1F705
:1012D000A89A8EE08A95F1F7A89886E69EE0019795
:1012E000F1F70895E82F883A11F4E2EA0AC0883B42
:1012F00011F4E5EB06C0803C20F0F0E0E65DFD4F28
:10130000E081AA9AA9988FEF8ABBEBBB84E08A950B
:10131000F1F7A89A8EE08A95F1F7A89886E69EE004
:101320000197F1F7089584B3876084BBAA98A998C0
:101330005FEF5ABB86E08BBB44E0842F8A95F1F7C0
:10134000A89A9EE0892F8A95F1F7A89820E030E9C5
:10135000F9013197F1F7AA98A9985ABB8CE08BBB99
:10136000842F8A95F1F7A89A892F8A95F1F7A89882
:10137000F9013197F1F7AA98A9985ABB88E38BBB7A
:10138000842F8A95F1F7A89A892F8A95F1F7A89862
:10139000F9013197F1F7AA98A9985ABB81E08BBB64
:1013A0004A95F1F7A89A9A95F1F7A898C90101977B
:1013B000F1F70895AA98A9988FEF8ABB81E08BBBBB
:1013C00084E08A95F1F7A89A8EE08A95F1F7A898BB
:1013D00080E090E90197F1F70895CF93DF93EB0157
:1013E00090E0029626E0880F991F2A95E1F7AA98C7
:1013F000A9982FEF2ABB8BBB84E08A95F1F7A89AB6
:101400008EE08A95F1F7A89880E090E90197F1F7CE
:1014100003C021960E94720988818823D1F7DF9149
:10142000CF910895CF93DF93EC0103C021960E94E2
:10143000720988818823D1F7DF91CF910895809137
:10144000090490910A04019790930A048093090477
:10145000019681F481E090E090930A04809309045E
:1014600080E063E374E00E94ED0981E06BE074E0EA
:101470000E94ED09089580913B03089580913D03FA
:1014800008958CE08093950010923D03089586E0C6
:101490008093950081E080933D03089586E08093DA
:1014A000950082E080933D03089586E08093950047
:1014B00083E080933D0308951F93182F9A01AB0199
:1014C00060E070E18EE090E00E94581721503040BB
:1014D0001BB888E18AB98CE0809395003093900026
:1014E00029B98093950010923D03812F83708093DA
:1014F0003B03107810933C03882359F0129A8130F3
:1015000021F454981A9A579807C0823029F4549AB3
:101510001A98103809F4579A1F91089580913B0347
:10152000882339F01A9A549880E098E40197F1F7EB
:101530005798089580913B03882389F05E9BFECFE6
:101540008CEC9CE10197F1F7549A1A9880E098E4AA
:101550000197F1F780913C03803809F4579A089578
:101560005D9BFECF8CB980E090E008955F9BFECF3D
:101570008CB190E008952BB130E020783070C90133
:101580000895982F8A3341F480939B0481E08093DF
:101590003803109237030EC080913803882351F02E
:1015A00080913803E82FF0E0E556FB4F90838F5F82
:1015B0008093380380919B048A33B1F4E09138031F
:1015C000F0E0E756FB4F80818D3071F4E0913803F5
:1015D000F0E0E656FB4F80818A3031F481E0809361
:1015E000370310923803089580913803803421F432
:1015F00010923803109237030895982F833241F4E4
:1016000080939B0481E080933803109237030EC0CF
:1016100080913803882351F080913803E82FF0E05F
:10162000E556FB4F90838F5F8093380380919B0436
:10163000833271F4E0913803F0E0E656FB4F80818D
:101640008D3031F481E08093370310923803089590
:1016500080913803803421F41092380310923703BC
:10166000089580913E0308958091400308958CE091
:1016700080939D0010924003089586E080939D0022
:1016800081E080934003089586E080939D0082E08E
:1016900080934003089586E080939D0083E08093CB
:1016A000400308951F93182F9A01AB0160E070E189
:1016B0008EE090E00E9458172150304010929B001D
:1016C00088E180939A008CE080939D00309398008D
:1016D0002093990080939D0010924003812F837086
:1016E00080933E03107810933F038823A9F0129A49
:1016F000813051F480919A008F7E80939A001A9ADB
:1017000080919A008F770DC0823069F480919A00A1
:10171000806180939A001A98103829F480919A0079
:10172000806880939A001F91089580913E038823DA
:1017300079F01A9A80919A008F7E80939A0080E0C7
:1017400098E40197F1F780919A008F7780939A003F
:10175000089580913E038823D9F080919B0086FFF5
:10176000FCCF8CEC9CE10197F1F780919A008061AD
:1017700080939A001A9880E098E40197F1F780919D
:101780003F03803829F480919A00806880939A0002
:101790000895982F80919B0085FFFCCF90939C002B
:1017A00080E090E0089580919B0087FFFCCF8091BE
:1017B0009C0090E0089520919B0030E020783070EC
:1017C000C9010895982F8A3341F480935B0481E026
:1017D00080933A03109239030EC080913A03882314
:1017E00051F080913A03E82FF0E0E55AFB4F9083E7
:1017F0008F5F80933A0380915B048A33B1F4E09168
:101800003A03F0E0E75AFB4F80818D3071F4E091AC
:101810003A03F0E0E65AFB4F80818A3031F481E0F0
:101820008093390310923A03089580913A038034EB
:1018300021F410923A03109239030895982F8332BD
:1018400041F480935B0481E080933A031092390362
:101850000EC080913A03882351F080913A03E82F1B
:10186000F0E0E55AFB4F90838F5F80933A038091BD
:101870005B04833271F4E0913A03F0E0E65AFB4FE7
:1018800080818D3031F481E08093390310923A03E6
:10189000089580913A03803421F410923A03109213
:1018A00039030895982F8E3789F480913A0388235D
:1018B00069F41092390380913A03E82FF0E0E55A79
:1018C000FB4F90838F5F80933A0314C080913A035B
:1018D000882381F080913A03843060F480913A0348
:1018E000E82FF0E0E55AFB4F90838F5F80933A0337
:1018F0001092390380915B048E3751F480913A0342
:10190000843031F410923A0381E0809339030895D2
:1019100080913A03803469F42BE534E0C90160E03A
:1019200070E040E450E00E94601310923A0310927D
:1019300039030895982F8E3371F08A3061F08091C9
:101940003A03E82FF0E0E55AFB4F90838F5F8093D6
:101950003A0310923903E0913A03F0E02BE534E0CA
:10196000E65AFB4F80818D30A1F481E080933903EA
:1019700080913A03803450F480913A03E82FF0E0EC
:10198000E20FF31F10828F5F80933A0310923A03A5
:10199000089580913A03803459F4C90160E070E001
:1019A00040E450E00E94601310923A031092390311
:1019B00008951F920F920FB60F920BB60F9211243B
:1019C0002F933F934F935F936F937F938F939F9347
:1019D000AF93BF93EF93FF9380919C00909140034E
:1019E000913051F0913028F0923049F0933061F409
:1019F00009C00E94E20B08C00E941E0C05C00E9494
:101A00009A0C02C00E94520CFF91EF91BF91AF91CE
:101A10009F918F917F916F915F914F913F912F9106
:101A20000F900BBE0F900FBE0F901F901895982F20
:101A30008E3789F480913803882369F41092370334
:101A400080913803E82FF0E0E556FB4F90838F5FDD
:101A50008093380314C080913803882381F08091EB
:101A60003803843060F480913803E82FF0E0E556C5
:101A7000FB4F90838F5F80933803109237038091E0
:101A80009B048E3751F480913803843031F41092E6
:101A9000380381E0809337030895809138038034C0
:101AA00069F42BE934E0C90160E070E040E450E003
:101AB0000E94601310923803109237030895982FF4
:101AC0008E3371F08A3061F080913803E82FF0E0B6
:101AD000E556FB4F90838F5F809338031092370356
:101AE000E0913803F0E02BE934E0E656FB4F8081CB
:101AF0008D30A1F481E080933703809138038034E6
:101B000050F480913803E82FF0E0E20FF31F1082C9
:101B10008F5F8093380310923803089580913803C3
:101B2000803459F4C90160E070E040E450E00E9464
:101B30006013109238031092370308951F920F928A
:101B40000FB60F920BB60F9211242F933F934F9322
:101B50005F936F937F938F939F93AF93BF93EF9315
:101B6000FF938CB190913D03913051F0913028F06A
:101B7000923049F0933061F409C00E94C10A08C054
:101B80000E94FD0A05C00E945F0D02C00E94170D51
:101B9000FF91EF91BF91AF919F918F917F916F9145
:101BA0005F914F913F912F910F900BBE0F900FBE01
:101BB0000F901F901895EF92FF920F931F93CF9362
:101BC000DF93DC01EB01F42EE52E890190913E03B9
:101BD000923079F41A9A80919A008F7E80939A00BD
:101BE000E0E0F8E43197F1F780919A008F778093E5
:101BF0009A00809140038823A9F420E007C08091D7
:101C00009B0085FFFCCFE0939C002F5FFD01E20F5E
:101C1000F11DE081EA3099F780919B0085FFFCCFB0
:101C20008AE016C08130B9F420E007C080919B00A3
:101C300085FFFCCFE0939C002F5FFD01E20FF11DBB
:101C4000E081ED3099F780919B0085FFFCCF8DE01E
:101C500080939C0013C0833089F420E030E0FD01C4
:101C6000E20FF31FE08180919B0085FFFCCFE093A2
:101C70009C002F5F3F4F2430310589F7209731F4C6
:101C8000923011F40E94A90B10E048C00E94A90BE9
:101C9000C8010E94A00F082F25C080919A008F775D
:101CA00080939A00809139038823B9F01092390308
:101CB0008F2D9E2D9C01F9012134310510F0E0E4B7
:101CC000F0E02BE534E0CE01B901AF010E945713DB
:101CD000802F0E94DD0F10E00BC080919A00806879
:101CE00080939A00802F0E948D0F892BB1F617E008
:101CF000802F0E94DD0F80913E03813079F41A9A83
:101D000080919A008F7E80939A0080E098E40197FA
:101D1000F1F780919A008F7780939A00812FDF915D
:101D2000CF911F910F91FF90EF900895EF92FF9246
:101D30000F931F93CF93DF93DC01EB01F42EE52E7D
:101D4000890190913B03923039F41A9A5498E0E05B
:101D5000F8E43197F1F7579880913D03882379F49F
:101D600004C05D9BFECFECB98F5FFD01E80FF11D54
:101D7000E081EA30B1F75D9BFECF8AE08CB9209715
:101D800031F4923011F40E949A0A10E038C00E9497
:101D90009A0AC8010E94A00F082F1DC05798809171
:101DA00037038823B9F0109237038F2D9E2D9C01A5
:101DB000F9012134310510F0E0E4F0E02BE934E0E2
:101DC000CE01B901AF010E945713802F0E94DD0F91
:101DD00010E007C0579A802F0E948D0F892BF1F6D3
:101DE00017E0802F0E94DD0F80913B03813039F492
:101DF0001A9A549880E098E40197F1F75798812F48
:101E0000DF91CF911F910F91FF90EF900895BF9AAE
:101E10000895AF92BF92CF92DF92EF92FF920F930D
:101E20001F93C79AA0E0B0E0BC01CD010E943F160D
:101E30005B016C0126E636E646E655E40E94CD16C7
:101E40007B018C0120E030E040E85FE30E940F1648
:101E500088231CF461E070E024C0C801B70120E0D1
:101E60003FEF4FE757E40E94C9161816B4F4C601B5
:101E7000B50120E030E040E251E40E94CD160E941E
:101E8000131680E791E005C0FC013197F1F761502E
:101E9000704061157105C1F707C0C801B7010E9404
:101EA0001316CB010197F1F7C7981F910F91FF907F
:101EB000EF90DF90CF90BF90AF9008959C014FB707
:101EC000F894C79A8091DD049091DE0482179307FD
:101ED00038F08091DD049091DE048F5F9F4F21F4F4
:101EE0003093DE042093DD044FBF089580E090E03E
:101EF0002FEF3FEFFC01EE0FFF1FE552FB4F318349
:101F00002083019680329105A9F787B7826087BF49
:101F100083E781BF8DE083BF08959FB7F894803237
:101F200018F0E0E0F0E009C0E82FF0E0EE0FFF1F4E
:101F3000E552FB4F0190F081E02D9FBFCF01089546
:101F40009C015FB7F894A2E0B0E04A2FFD01EE0FCC
:101F5000FF1FE552FB4F808191818F5F9F4F71F48E
:101F60008FEF2F3F380711F42EEF3FEFAA0FBB1F63
:101F7000A552BB4F11963C932E9305C04F5F11960F
:101F8000A032B10511F75FBF842F08952FB7F894E1
:101F90003FEF8F3F930711F48EEF9FEF9093DC0498
:101FA0008093DB042FBF2FB7F8948091DB049091CE
:101FB000DC042FBF892BB9F70895E82F2FB7F894C9
:101FC00082508E3148F4F0E0EE0FFF1FE552FB4FD8
:101FD0008FEF9FEF918380832FBF089583B7887F12
:101FE00083BF089583B7856083BF08951F920F92C2
:101FF0000FB60F920BB60F9211242F933F934F936E
:102000005F936F937F938F939F93AF93BF93EF9360
:10201000FF9320E030E0F901EE0FFF1FE552FB4F88
:1020200080819181892B51F0808191818F5F9F4FB9
:1020300029F0808191810197918380832F5F3F4FA9
:102040002032310541F78091DD049091DE04019743
:1020500009F4C7980E94B10480912A0390912B0340
:10206000019790932B0380932A030196C9F48091E2
:10207000410390914203A0914303B0914403019620
:10208000A11DB11D8093410390934203A09343038C
:10209000B09344038AEE93E090932B0380932A033A
:1020A0008091450390914603A0914703B091480366
:1020B0000196A11DB11D8093450390934603A09303
:1020C0004703B0934803FF91EF91BF91AF919F9168
:1020D0008F917F916F915F914F913F912F910F90D1
:1020E0000BBE0F900FBE0F901F90189520E030E0B0
:1020F000F901ED56FA4F1082C901880F991FF901B5
:1021000045E0EE0FFF1F4A95E1F7E81BF90BE55E8E
:10211000FA4F80E090E01192119201968F30910574
:10212000D1F72F5F3F4F2430310511F7089580918B
:1021300049038F5F80934903843011F4109249035F
:10214000089580914903882319F484E0809349031A
:1021500080914903815080934903089580914903F8
:10216000282F30E0F901ED56FA4F80818F5F808390
:102170008F3009F41082D901AD56BA4F8C91F90114
:1021800074E0EE0FFF1F7A95E1F7E21BF30BE80F07
:10219000F11DEE0FFF1FE55EFA4F80819181892BC3
:1021A00009F41C92089580914903A82FB0E0FD0125
:1021B000ED56FA4F8081882311F48FE08083FD0172
:1021C000ED56FA4F40819D0194E0220F331F9A95FE
:1021D000E1F72A1B3B0B4150F901E40FF11DEE0F13
:1021E000FF1FE55EFA4F80819181892B31F44423F2
:1021F00091F7AD56BA4F1C920895AD56BA4F4C9315
:10220000089580914903089580914903E3E9F5E039
:10221000E80FF11D808108958091490390E0FC0151
:10222000ED56FA4F2081FC0134E0EE0FFF1F3A9586
:10223000E1F7E81BF90BE20FF11DEE0FFF1FE55E62
:10224000FA4F0190F081E02D09950895FB018F7000
:102250008A3010F4805D01C0895C808380E008953D
:10226000FB01982F92959F709A3010F4905D01C0F9
:10227000995C90838F708A3010F4805D01C0895C16
:10228000818380E00895FF920F931F93F82E8B01B6
:10229000892F0E9430110E5F1F4F8F2DB8010E94B1
:1022A000301180E01F910F91FF900895982FFB014E
:1022B0008154863020F49753908380E00895892FCD
:1022C00080538A3010F082E00895808380E0089582
:1022D000FC01DB019081892F8154863018F4292F6D
:1022E000275306C0292F20532A3010F082E008958A
:1022F000322F3295307F3C939181892F81548630E3
:1023000010F4975306C090539A3018F0922F82E041
:1023100001C080E0390F3C930895CF92DF92EF9295
:10232000FF920F931F93DF93CF930F92CDB7DEB73A
:102330007C018B016E010894C11CD11CB6010E9466
:102340006811382F882391F48981F80110828183E4
:10235000C7010296B6010E946811382F2981F80141
:1023600080819181820F911D91838083832F0F90B3
:10237000CF91DF911F910F91FF90EF90DF90CF9061
:1023800008956F927F928F929F92AF92BF92CF9259
:10239000DF92FF920F931F93DF93CF930F92CDB7EE
:1023A000DEB75C016B014A01FF2400E010E03E0152
:1023B0000894611C711C0CC0C501800F911FB301F2
:1023C0000E946811882369F40E5F1F4F8981F80EFF
:1023D0000C151D0588F38F2D8195B4010E943011D5
:1023E00080E00F90CF91DF911F910F91FF90DF90D0
:1023F000CF90BF90AF909F908F907F906F900895F7
:10240000CF92DF92FF920F931F93CF93DF938C01B4
:102410006B01DC015C968C915C97813039F41196EC
:102420008C91833019F48BE390E002C081E190E05D
:102430004817590710F494E065C0F6018AE38193C8
:10244000D8018C91BF010E943011B6016D5F7F4FA2
:10245000F80181810E943011E6012596D8015C9631
:102460008C915C97813071F411968C911197833027
:1024700049F412968C91880FBE010E943011E6013A
:10248000279607C0F80182819381BE010E94431103
:102490002496D80114968D919C911597BE010E94A7
:1024A00043112496F801848D8130D9F481818330E1
:1024B000C1F4FF24F3940BC0EE0FFF1FE00FF11FD8
:1024C00084819581BE010E9443112496F394EF2DDF
:1024D000F0E0D80112968D919C911397E817F907B7
:1024E00058F3B601609570956C0F7D1FC60101967B
:1024F000AE010E94C111982F882321F48DE08A83B8
:102500008AE08B83892FDF91CF911F910F91FF90EC
:10251000DF90CF900895AF92BF92CF92DF92EF926B
:10252000FF920F931F93DF93CF9300D00F92CDB7FD
:10253000DEB76C018B018DE1FB0111928A95E9F701
:10254000F60160E070E080818D30B9F481818A30DD
:10255000A1F442E0A42EB12CA60EB71E7601089479
:10256000E11CF11C63507040C701AE014E5F5F4F2C
:102570000E94C111882349F08CC06F5F7F4F319654
:102580006B33710501F785E084C0F601EA0DFB1D90
:1025900034979A8180813496981709F077C03397E1
:1025A0009B818081981709F071C0C701B8010E9412
:1025B0006811882309F06DC033E0E32EF12CEC0C98
:1025C000FD1CB8016F5F7F4FC7010E94681188230F
:1025D00009F05FC0F8018181833009F044C0F1E166
:1025E000AF16B10409F43FC081E0F801848F25E003
:1025F000E22EF12CEC0CFD1CC701BE016F5F7F4F7A
:102600000E946811D82E882309F042C089818695DE
:102610008C3018F08CE090E001C090E0F8019383DA
:10262000828382E090E0E80EF91E198212C0660FE4
:10263000771F6C5F7F4F600F711FC7010E948D1164
:10264000882339F589818F5F8983E4E0F0E0EE0E1D
:10265000FF1E8981682F70E0F801828193816817DD
:10266000790728F315C0F801148EB8016E5F7F4F0B
:10267000C70102960E948D11882359F40C5F1F4FE9
:10268000C7010696B8010E948D1103C083E001C006
:102690008D2D0F900F900F90CF91DF911F910F9183
:1026A000FF90EF90DF90CF90BF90AF900895FB0127
:1026B000DC0102C001900D9241505040D8F70895BE
:1026C000DC0101C06D9341505040E0F70895FB01DB
:1026D000DC0101900D920020E1F70895AEE0B0E03A
:1026E000E4E7F3E10C9488170D891E8986E08C835A
:1026F0001A8309838FEF9FE79E838D839E01275E58
:102700003F4FCE0101966F89788DA9010E949213E7
:102710002F813885020F131FF80110822E96E4E0F6
:102720000C94A417ABE0B0E0E8E9F3E10C947A175D
:102730003C012B015A01FC0117821682838181FD25
:1027400003C06FEF7FEFC6C19AE0892E1E01089487
:10275000211C311CF3012381F20123FD859123FF0C
:1027600081912F01882309F4B2C1853239F423FD08
:10277000859123FF81912F01853229F490E0B301E7
:102780000E948515E7CF982FFF24EE249924FFE1BE
:10279000FF15D0F09B3269F09C3228F4903259F04A
:1027A000933291F40EC09D3249F0903369F441E0C8
:1027B00024C052E0F52A84E0F82A28C098E0F92ADB
:1027C00025C0E0E1FE2A22C0F7FC29C0892F8053F2
:1027D0008A3070F4F6FE05C0989C902C1124980E57
:1027E00015C0E89CE02C1124E80EF0E2FF2A0EC090
:1027F0009E3229F4F6FC6BC140E4F42A07C09C36F3
:1028000019F450E8F52A02C0983649F4F20123FD84
:10281000959123FF91912F01992309F0B8CF892F2A
:102820008554833018F08052833038F444E050E00F
:10283000A40EB51E5FE359830FC0933631F0933772
:1028400079F0933509F056C020C0F5018081898365
:1028500042E050E0A40EB51E610101E010E012C09C
:10286000F501C080D180F6FC03C06FEF7FEF02C09E
:10287000692D70E042E050E0A40EB51EC6010E9432
:102880007A158C015FE7F52214C0F501C080D18074
:10289000F6FC03C06FEF7FEF02C0692D70E042E0ED
:1028A00050E0A40EB51EC6010E946F158C0150E8C1
:1028B000F52AF3FE07C01AC080E290E0B3010E943F
:1028C0008515EA948E2D90E008171907A8F30EC01D
:1028D000F601F7FC8591F7FE81916F0190E0B3015D
:1028E0000E948515E110EA94015010400115110570
:1028F00079F7EAC0943611F0993669F5F7FE08C009
:10290000F501208131814281538184E090E00AC049
:10291000F501808191819C01442737FD4095542F1A
:1029200082E090E0A80EB91E9FE6F92257FF09C089
:1029300050954095309521953F4F4F4F5F4FE0E8C0
:10294000FE2ACA01B901A1012AE030E00E94B115B6
:10295000D82ED21840C0953729F41F2D1F7E2AE0AB
:1029600030E01DC01F2D197F9F3661F0903720F495
:10297000983509F0ACC00FC0903739F0983709F09E
:10298000A6C004C028E030E00AC0106114FD146045
:1029900020E130E004C014FD166020E132E017FFB2
:1029A00008C0F501608171818281938144E050E02B
:1029B00008C0F50180819181BC0180E090E042E097
:1029C00050E0A40EB51EA1010E94B115D82ED21858
:1029D0008FE7F82EF122F6FE0BC05EEFF522D91438
:1029E00038F4F4FE07C0F2FC05C08FEEF82202C0F6
:1029F0001D2D01C0192DF4FE0DC0FE01ED0DF11DC0
:102A00008081803319F499EEF92208C01F5FF2FE2D
:102A100005C003C08F2D867809F01F5F0F2DF3FCD2
:102A200014C0F0FE0FC01E1510F09D2C0BC09D2C85
:102A30009E0C911A1E2D06C080E290E0B3010E9408
:102A400085151F5F1E15C0F304C01E1510F4E11A92
:102A500001C0EE2404FF0FC080E390E0B3010E94A8
:102A6000851502FF1DC001FD03C088E790E00EC080
:102A700088E590E00BC0802F867891F001FF02C0BE
:102A80008BE201C080E2F7FC8DE290E0B3010E948E
:102A9000851506C080E390E0B3010E9485159A94E5
:102AA000D914C0F3DA94F101ED0DF11D808190E0AD
:102AB000B3010E948515DD20A9F706C080E290E0F1
:102AC000B3010E948515EA94EE20C1F743CEF301CD
:102AD00066817781CB012B96E2E10C949617FC017D
:102AE0000590615070400110D8F7809590958E0F39
:102AF0009F1F0895FC016150704001900110D8F7AC
:102B0000809590958E0F9F1F08950F931F93CF93DD
:102B1000DF938C01EB018B8181FF1BC082FF0DC015
:102B20002E813F818C819D812817390764F4E881CB
:102B3000F9810193F983E88306C0E885F985802F40
:102B40000995892B31F48E819F8101969F838E8315
:102B500002C00FEF1FEFC801DF91CF911F910F91BE
:102B60000895FA01AA27283051F1203181F1E89423
:102B70006F936E7F6E5F7F4F8F4F9F4FAF4FB1E070
:102B80003ED0B4E03CD0670F781F891F9A1FA11D6B
:102B9000680F791F8A1F911DA11D6A0F711D811D6C
:102BA000911DA11D20D009F468943F912AE0269F31
:102BB00011243019305D3193DEF6CF010895462F90
:102BC0004770405D4193B3E00FD0C9F7F6CF462F71
:102BD0004F70405D4A3318F0495D31FD40524193DA
:102BE00002D0A9F7EACFB4E0A69597958795779597
:102BF0006795BA95C9F700976105710508959B011E
:102C0000AC010A2E06945795479537952795BA95A6
:102C1000C9F7620F731F841F951FA01D08956CD004
:102C200008F481E0089594D088F09F5790F0B92F70
:102C30009927B751A0F0D1F0660F771F881F991F11
:102C40001AF0BA95C9F712C0B13081F09BD0B1E04B
:102C5000089598C0672F782F8827B85F39F0B93F5B
:102C6000CCF3869577956795B395D9F73EF4909513
:102C70008095709561957F4F8F4F9F4F0895E89491
:102C800009C097FB3EF490958095709561957F4FB4
:102C90008F4F9F4F9923A9F0F92F96E9BB27939562
:102CA000F695879577956795B795F111F8CFFAF472
:102CB000BB0F11F460FF1BC06F5F7F4F8F4F9F4FA3
:102CC00016C0882311F096E911C0772321F09EE801
:102CD000872F762F05C0662371F096E8862F70E067
:102CE00060E02AF09A95660F771F881FDAF7880F41
:102CF0009695879597F90895990F0008550FAA0B97
:102D0000E0E8FEEF16161706E807F907C0F01216FE
:102D10001306E407F50798F0621B730B840B950B01
:102D200039F40A2661F0232B242B252B21F4089556
:102D30000A2609F4A140A6958FEF811D811D0895F3
:102D400057FD9058440F551F59F05F3F71F047955C
:102D5000880F97FB991F61F09F3F79F08795089541
:102D6000121613061406551FF2CF4695F1DF08C060
:102D7000161617061806991FF1CF8695710561057D
:102D800008940895E894BB2766277727CB0197F925
:102D90000895B2DF08F48FEF08950BD078C069D0A2
:102DA00028F06ED018F0952309F05AC05FC01124A6
:102DB000EACFC6DFA0F3959FD1F3950F50E0551FE2
:102DC000629FF001729FBB27F00DB11D639FAA2780
:102DD000F00DB11DAA1F649F6627B00DA11D661FCF
:102DE000829F2227B00DA11D621F739FB00DA11DF0
:102DF000621F839FA00D611D221F749F3327A00DAA
:102E0000611D231F849F600D211D822F762F6A2F45
:102E100011249F5750408AF0E1F088234AF0EE0FCA
:102E2000FF1FBB1F661F771F881F91505040A9F7D7
:102E30009E3F510570F014C0A6CF5F3FECF3983E63
:102E4000DCF3869577956795B795F795E7959F5F3E
:102E5000C1F7FE2B880F911D9695879597F90895D8
:102E600097F99F6780E870E060E008959FEF80EC3D
:102E7000089500240A9416161706180609060895E0
:102E800000240A9412161306140605060895092E46
:102E90000394000C11F4882352F0BB0F40F4BF2BB5
:102EA00011F460FF04C06F5F7F4F8F4F9F4F0895F5
:102EB000A1E21A2EAA1BBB1BFD010DC0AA1FBB1F3E
:102EC000EE1FFF1FA217B307E407F50720F0A21BB0
:102ED000B30BE40BF50B661F771F881F991F1A941D
:102EE00069F760957095809590959B01AC01BD0147
:102EF000CF0108952F923F924F925F926F927F92EF
:102F00008F929F92AF92BF92CF92DF92EF92FF92F9
:102F10000F931F93CF93DF93CDB7DEB7CA1BDB0BA5
:102F20000FB6F894DEBF0FBECDBF09942A8839884A
:102F300048885F846E847D848C849B84AA84B98451
:102F4000C884DF80EE80FD800C811B81AA81B9815D
:102F5000CE0FD11D0FB6F894DEBF0FBECDBFED0171
:062F60000895F894FFCF74
:102F6600FFFF320005005052455353454420256467
:102F76002020202020202020200053454E534F5251
:102F86005320256420202020202000000105F40184
:102F9600F40100000000000000006400E8030000E7
:102FA6000000000000003200320032003200320021
:102FB600E803C2C5D0D1C8DF20CFCE3A20202020DA
:102FC600202000252D313673003230303831323032
:102FD6003100D0C5C6C8CC20D1C8D0C5CDDB202095
:102FE60020200025642020202020202020202020B2
:102FF600202020202000CFD0C8C6C8CC20D2D32085
:1030060020202020202000C2DBCACBDED7C5CD0081
:10301600C2CACBDED7C5CD002573202020202020B4
:103026002020202020202020202000C4C2C8C32E1B
:1030360020CDC0CACECFC8D2C5CBDF00CACECDD236
:10304600D0CECBDC20D4CECBDCC3C82000CBC0CCCA
:10305600CFC02027D1D2CECF272020202000C2DB10
:10306600CACBDED7C5CDC000C2CACBDED7C5CDC060
:1030760000CBC0CCCFC02027C4C0C2CBC5CDC8C5ED
:103086002700CBC0CCCFC02027C3C5D0CCC5D22EFD
:10309600272000C2DBD5CEC4DB2020202020202024
:1030A600202020002020202020202020202020203A
:1030B60020202020002573202020202020202020D2
:1030C60020202020202000C2D5CEC4DB20202020B6
:1030D6002020202020202000CEC0CE20CDCFCF2003
:1030E600D1C8D1D2C5CCC020002020202020CBCCF6
:1030F600CFD22D31202020202000CACECDC5D6200B
:10310600D4CECBDCC3C8202020202000C4C000CDF4
:10311600C5D200C7C0CCC5CDC020C1CEC1C8CDDB8D
:103126002020202000D1CCCED2CAC020D4CECBDCE9
:10313600C3C820202020009A02AC02AF02B302AC22
:1031460002AF02C502AC02AF020141A042A1E045B6
:10315600A3A4A5A64BA74D484FA8504354A9AA58C7
:10316600E1ABACE2ADAE62AFB0B161B2B3B4E365B0
:10317600B6B7B8B9BABBBCBD6FBE7063BF79E478E9
:0C318600E5C0C1E6C2C3C4C5C6C7EA0369
:00000001FF
